:020000040800F2
:100000007808002089010008A91C00085114000884
:10001000A51C000845020008D11C000800000000D3
:10002000000000000000000000000000B11C0008FB
:100030007902000800000000AD1C0008B51C000893
:10004000A3010008A3010008A3010008A301000800
:10005000A3010008A3010008A3010008A3010008F0
:10006000A3010008A3010008A3010008A3010008E0
:10007000A3010008A3010008490200085502000876
:10008000610200086D020008A3010008A301000836
:10009000A3010008A3010008A3010008A3010008B0
:1000A000A3010008A3010008A3010008A3010008A0
:1000B000A3010008A3010008A3010008A301000890
:1000C000A3010008A3010008A3010008A301000880
:1000D000A3010008A3010008A3010008A301000870
:1000E000A3010008A3010008A301000800F002F822
:1000F00000F03AF80AA090E8000C82448344AAF188
:100100000107DA4501D100F02FF8AFF2090EBAE885
:100110000F0013F0010F18BFFB1A43F0010318473B
:10012000181D0000381D0000103A24BF78C878C19F
:10013000FAD8520724BF30C830C144BF04680C60ED
:10014000704700000023002400250026103A28BF35
:1001500078C1FBD8520728BF30C148BF0B60704739
:100160001FB51FBD10B510BD00F036F81146FFF7E2
:10017000F7FF01F001FE00F054F803B4FFF7F2FFBF
:1001800003BC00F057F800000948804709480047C1
:10019000FEE7FEE7FEE7FEE7FEE7FEE7FEE7FEE737
:1001A000FEE7FEE704480549054A064B7047000094
:1001B000CD1C0008ED00000878020020780800201F
:1001C00078040020780400207047704770470000D2
:1001D00000487047100000207546FFF7F9FFAE4653
:1001E00005006946534620F00700854618B020B543
:1001F000FFF7D8FFBDE820404FF000064FF00007A2
:100200004FF000084FF0000BAC46ACE8C009ACE87A
:10021000C009ACE8C009ACE8C00921F007018D466F
:10022000704710B50446AFF300802046BDE810408B
:10023000FFF7A3BF01491820ABBEFEE7260002006E
:1002400070470000FEE7000040F23C10C2F20000E0
:1002500000F01AB840F2F800C2F2000000F014B842
:1002600040F2B400C2F2000000F00EB840F270009C
:10027000C2F2000000F008B870470000EFF31080F1
:1002800072B600BFFEE7000010B5D0E90FCE0168DE
:10029000DCF800300A6823FA0EF35C072AD512F066
:1002A000040427D00A68920603D40A6822F00402E4
:1002B0000A602F22C4F20202914240F20402C4F208
:1002C00002025BDD3023C4F20203994272D0442360
:1002D000C4F20203994273D05823C4F20203994234
:1002E00040F07A804FF480231360C16A002940F007
:1002F00098806FE09C0727D512F0020424D00A688A
:10030000920606D40A6822F00A020A60012280F8E6
:1003100021202F22C4F20202914240F20402C4F2D0
:1003200002023BDD3023C4F20203994260D0442331
:10033000C4F2020399425FD05823C4F202039942E7
:1003400060D14FF4003365E01B0743D512F008027B
:1003500008BF10BD0A6822F00E020A60012101FAEE
:100360000EF2CCF80420816380F82110016B00228A
:10037000002980F8202054D12CE000BF0823C4F2CB
:100380000203994222D01C23C4F20203994223D1D2
:1003900040231360C16A002943D11BE00823C4F243
:1003A000020399422CD01C23C4F20203994229D1A2
:1003B00020232FE04FF480631360C16A89BB09E0FA
:1003C0004FF480431360C16A59BB03E004231360F8
:1003D000C16A31BB10BD00BF02F168044FF08063F9
:1003E000A14208BF4FF480031360C16AC9B9F1E7A5
:1003F0004FF400730EE000BF4FF400530AE000BF5B
:10040000022307E002F168044FF00073A14208BF25
:100410004FF400131360816A0022002980F8202025
:10042000D8D0BDE810400847014600284FF0010031
:1004300008BF70472DE9F043D1F800C04FF6F873BC
:10044000CBF6FD734CF6CD426344CCF6CC42A3FB15
:1004500002236FF0030707EA93030027C4F20207A1
:1004600001F10C09C1E90F730223D1E9012E99E8CA
:100470007002D1F81C8081F82130DCF8003043F69E
:10048000F077BB431A4342EA0E0222432A43324327
:1004900042EA090242EA0802CCF8002000228A63FC
:1004A00081F8210081F820200020BDE8F04370474A
:1004B0002DE9F04F82B00E68002E00F0038141F26A
:1004C0000042C4F20102042340F2004E904208BFF1
:1004D00003234FF6FF7CC4F2010E00930024012396
:1004E000C1F2100C4FF0000A4FF0000949E000BFC4
:1004F000012704F00C030F229A402BEA020207FAAC
:1005000003F34FEA9A051A4346F82520D1F804B0C0
:1005100040F20C455FEACB22DEF8082054BF22EA05
:10052000080242EA0802C4F20105CEF808202A684F
:100530005FEA8B2354BF22EA080242EA08022A60DB
:100540005FEA8B33DEF8042054BF22EA080242EA55
:1005500008025FEACB33CEF80420DEF800204FF02B
:10056000010354BF22EA080242EA0802CEF8002042
:100570000E680AF1010A36FA0AF204F1040400F0E6
:10058000A18003FA0AF816EA080FF1D04E68664512
:1005900012DC122E56D8DFE806F0350B45495555CA
:1005A00055555555555555555555554D510000BF47
:1005B000D1F80C9046E000BF4FF6FF72C1F2210265
:1005C00096420FDC0022C1F2110296421AD000229C
:1005D000C1F21202964215D00022C1F221029642C7
:1005E00010D02FE00022C1F2220296420AD000224F
:1005F000C1F23102964205D00022C1F23202964287
:1006000020D100BF8A684AB1012A14BFC0F8148003
:10061000C0F810804FF0080914E000BF4FF0040943
:1006200010E000BFCA6802F108090BE04FF00009B2
:1006300008E000BFCA6802F1040903E0CA6802F1D9
:100640000C0900BF22460646BAF1080F24BF203A23
:10065000043637680F25954027EA050509FA02F2A6
:100660002A433260CA79D2067FF582AF41F218037D
:10067000C4F202031A68AEF57E7642F001021A60F7
:100680001A6802F001020192019A2AF0030256F858
:1006900002B040F60002C4F20102904210D040F6CF
:1006A0000042C4F2010290423FF422AF41F2000244
:1006B000C4F20102009F904208BF022719E700BF61
:1006C000002716E702B0BDE8F08F0000002A08BF3F
:1006D000090401617047000040F27420C2F200007A
:1006E0000068704770B5B8B3044690F83D0028B96B
:1006F000002084F83C00204600F05CF9242084F8B7
:100700003D002068016821F001010160016841F4A9
:1007100000410160016821F40041016000F0B2FB7A
:1007200048F28041C0F21E0140F60013D4F804E004
:1007300088424FF00001C0F23D0348F2A16C4FF037
:10074000000238BF01219842C0F2010C38BF0122DB
:10075000E64538BF0A460AB1012070BD4DF68361F7
:10076000C4F21B31A0FB01122168950C4B684FF4B9
:10077000967623F03F0343EA9243754344F6D356FB
:100780004B60C1F262060B6AA5FB0656B50923F061
:100790003F03E64538BF950C6A1C1A430A62CA69D2
:1007A00048F2A0664CF6FF73C0F20106B64522EA95
:1007B00003020BD801384FEA4E03B0FBF3F00130CF
:1007C0006FF31F30042898BF04201EE0A36801388F
:1007D00063B119230EFB03F3B0FBF3F001306FF3A9
:1007E0001F3078B100F5804008E000BF0EEB4E03EB
:1007F000B0FBF3F001306FF31F3028B100F500407B
:1008000003E000BF012000E001201043C861086838
:10081000D4E9072320F0C00010431843086088681B
:1008200048F2FF3204F10C0690434CCE18431043BB
:10083000A5698860C86820F0FF0030432843C8607D
:10084000086840F00100086000202021206484F83E
:100850003D10206384F83E0070BD00002DE9F04398
:1008600083B0994616460F460446FFF735FF94F8C5
:100870003D10202920D10546206800BF81698907E5
:1008800016D5FFF729FF411B20681A29F6D3816985
:100890008907F3D500202021206384F83D1084F8D7
:1008A0003E00216C41F02001216484F83C0003E00B
:1008B00094F83C10012903D1022003B0BDE8F08375
:1008C000012284F83C200368DDE90B180A9ADB0753
:1008D00003D1036843F001030360036823F400635A
:1008E0000360212084F83D00402084F83E00002071
:1008F000206462626185608D394620850020CFF6D4
:10090000FF70E062204632464B46CDF800800195EC
:1009100000F0A0FD20B1012003B0BDE8F08300BFCE
:10092000208D98B9204641462A4600F0F7FD88B34D
:10093000206C0428EFD12068016841F40071016047
:10094000012003B0BDE8F0830004EBD0204641460F
:100950002A4600F09DFF0028EAD1616A2268084615
:1009600010F8013B1361238D6062581E2085678D4E
:10097000013F678557697F07E6D50704E4D04878CB
:100980001061881C6062981E2085618D0139618527
:10099000DAE700BF2068016841F40071016020209F
:1009A00084F83D00002084F83E0084F83C0003B049
:1009B000BDE8F0832DE9F04186B00446006845F6B5
:1009C0000001C4F20001002788420597CDE90377B2
:1009D000029765D045F20041C4F20001884240F020
:1009E000B58041F21805C4F20205286840F24408B7
:1009F00040F008002860286802A900F00800019073
:100A000001984FF44070029012200390032005904B
:100A100040F60040C4F20100C4F20208FFF748FDAE
:100A20000420C4F201000168002741F0E06141F0B8
:100A3000020101606868802640F400106860686800
:100A400040F2700500F400100190019808F13C009C
:100A5000C2F20005C5E900072846C5E90276C5E9E6
:100A60000477C5E90677FFF7DFFC002818BFFFF71A
:100A700005FCA5636C6240F2B40508F12800C2F2DF
:100A80000005102185E88300C5E90367C5E90577FE
:100A9000EF612846FFF7C8FC002853D154E000BF9F
:100AA00041F21805C4F20205286840F2440840F0FB
:100AB00008002860286802A900F008000190019849
:100AC0004FF440600290122003900320059040F6FE
:100AD0000040C4F20100C4F20208FFF7E9FC6868B4
:100AE000802640F480006860686840F2F80500F4F1
:100AF00080000190019808F11400C2F20005C5E9D8
:100B000000072846C5E90276C5E90477C5E90677F6
:100B1000FFF78AFC002818BFFFF7B0FBA5636C62E3
:100B200040F23C15C2F2000510200021C5E900800A
:100B3000C5E90216C5E90411C5E906112846FFF703
:100B400073FC08B1FFF79AFB65636C6206B0BDE801
:100B5000F081000040F2000040F27421C2F2000077
:100B6000C2F2000100780A68104408607047000073
:100B700080B542F20000C4F20200016841F01001A9
:100B80000160032000F08EF80F2000F005F800F05F
:100B900027F8002080BD000070B540F20006C2F2C8
:100BA000000640F208013278C2F200014FF47A7375
:100BB0000968B3FBF2F20446B1FBF2F1084600F01B
:100BC00063FB0F2C4FF0010508D838B94FF0FF3008
:100BD00021460022002500F039F87460284670BDD7
:100BE00082B041F21800C4F202000168022241F012
:100BF00001010160016801F0010101910199416861
:100C000041F080514160406800F0805000900098B1
:100C10000420C4F20100016862F31A61016002B0AD
:100C200070470000002848BF7047C1B200F01F00A5
:100C3000012202FA00F04EF20012CEF2000242EA65
:100C4000D10121F0030108607047000010B54EF695
:100C50000C5CCEF2000CDCF80030C3F3022E8EF0F8
:100C60000704042C28BF0424BEF103034FF0FF3E09
:100C70000EFA04F438BF0023A14399400EFA03F39F
:100C80009A43114300F00F0200F160430901043A56
:100C900003F564436244002848BF02F10C03197055
:100CA00010BD00004EF60C51CEF200010A684FF65E
:100CB000FF031A4060F30A2242F0806040F0FD70AA
:100CC000086070472DE9F04381B0002800F085806E
:100CD00042F20008C4F202080446D8F800000D46AB
:100CE00000F0070088420CD2D8F8000020F007007E
:100CF0002843C8F80000D8F8000000F00700A84218
:100D00006BD1206841F204098107C4F2020917D5AA
:100D1000410705D5D9F8001041F4E061C9F8001089
:100D2000010705D5D9F8001041F46051C9F8001049
:100D3000D9F80010A26821F0F0011143C9F80010A1
:100D4000C00741D1D8F8000000F00700A8420CD934
:100D5000D8F8000020F007002843C8F80000D8F8B1
:100D6000000000F00700A84237D12068410707D5EE
:100D7000D9F80010E26821F4E0611143C9F80010CD
:100D8000000708D5D9F80000216920F4605040EA36
:100D9000C100C9F80000D9F8002002F00C000828B2
:100DA00041F20020C0F27A0050D141F62863C2F32C
:100DB0008341C0F60003595CD2033BD440F60010D7
:100DC000C0F23D00484341E0606802280AD0012893
:100DD0002AD159F8041C890308D4012001B0BDE8C8
:100DE000F08300BF59F8041C8901F6D5D9F800102A
:100DF00021F003010843C9F80000FFF76DFC064627
:100E000041F28837D9F80000616800F00C00B0EBBF
:100E1000810F97D0FFF760FC801BB842F2D9032006
:100E200001B0BDE8F08300BF59F8041C8907D4D590
:100E3000DCE700BFD9F8002041F62663C2F3404248
:100E4000C0F600039A5C4843B0FBF2F0D9F80010FA
:100E500041F60E62C1F30311C0F60002515C40F28C
:100E6000080220FA01F140F20400C2F2000000681A
:100E7000C2F200021160FFF78FFE002001B0BDE852
:100E8000F083000040F2080041F20401C2F20000C9
:100E9000C4F202010068096841F61E62C1F3022132
:100EA000C0F60002515CC8407047000040F20800E4
:100EB00041F20401C2F20000C4F2020100680968B4
:100EC00041F61E62C1F3C221C0F60002515CC84067
:100ED000704700002DE9F04182B0002868D0044638
:100EE000007841F20006C007C4F2020625D07068FF
:100EF00000F00C0004281BD0706800F00C000828DB
:100F000002D17068C00313D46068002800F06881C3
:100F1000B0F5A02F00F07C81B0F5803F00F07C811F
:100F2000306820F480303060306820F4802076E132
:100F30003068800301D56068D0B32078800718D569
:100F4000706810F00C0F07D0706800F00C000828D3
:100F50006ED17068C0036BD43068800702D52069F9
:100F6000012825D13068616920F0F80040EAC1000D
:100F70003060207800071FD42078400732D4E5691C
:100F800095B1706800F00C00082840F08F80012DAA
:100F90000ED07068216A00F480328A4208D1616AFA
:100FA00000F47010884203D1002002B0BDE8F08147
:100FB000012002B0BDE8F081A069002862D00020C5
:100FC000C4F242200121C0F88014FFF785FB0546DA
:100FD000706A800700F18C80FFF77EFB401B0228BF
:100FE000F6D92AE1F06910F0805808D1F06940F094
:100FF0008050F061F06900F080500090009847F256
:101000000007C4F200073868C00529D4386840F4E6
:1010100080703860FFF760FB054600BF3868C00588
:101020001ED4FFF759FB401B6428F7D905E100BF28
:101030002069002840F20000C4F2422000F08280C3
:1010400001210160FFF748FB054600BF30688007BB
:101050003FF588AFFFF740FB401B0228F6D9ECE0D4
:10106000E068002800F08080052800F097800128C3
:1010700000F09880306A20F001003062306A20F081
:10108000040092E00020C4F242200021C0F8801445
:10109000FFF722FB054600BF706A80077FF56CAF43
:1010A000FFF71AFB401B0228F6D9C6E00027C4F25E
:1010B000422700203866FFF70FFB022D05460BD1B3
:1010C0003068800140F1BE80FFF706FB401B02281C
:1010D0004FF00300F4D968E7306880017FF564AF12
:1010E000FFF7FAFA401B02284FF00300F4D95CE73F
:1010F00040F20800C2F20000006844F6D351C1F289
:101100006201A0FB0101480A019000BF00BF0198E5
:10111000411E002801913FF42FAF00BF0198411EEE
:10112000002801913FF428AF00BF0198411E00281C
:1011300001913FF421AF00BF0198411E00280191A9
:10114000E4D119E700210160FFF7C6FA054600BFA8
:10115000306880077FF50DAFFFF7BEFA401B02280D
:101160004FF00300F4D920E7306A20F0010030622C
:10117000306A20F004003062FFF7AEFA054641F213
:10118000883700BF306A800720D5FFF7A5FA401BDB
:10119000B8424FF00300F5D907E700BF306A40F0CE
:1011A00004003062306A40F001003062FFF794FAC8
:1011B000054641F2883700BF306A800706D4FFF742
:1011C0008BFA401BB842F7D937E000BFB8F1000FE7
:1011D0007FF4D5AEF06920F08050F061CFE600BF1B
:1011E000306820F480303060306820F48020306037
:1011F000FFF772FA054600BF306880037FF59DAEA9
:10120000FFF76AFA401B64284FF00300F4D9CCE6DC
:10121000306840F480203060306840F480303060C6
:10122000FFF75AFA054600BF306880033FF585AEE8
:10123000FFF752FA401B6428F6D9032002B0BDE83C
:10124000F08100BF206AB0F5803F05D17168A268C7
:1012500021F40031114371607168626A21F47411E4
:1012600011430843706001203866FFF735FA0446E1
:10127000306880013FF598AEFFF72EFA001B022878
:101280004FF00300F4D990E6411E0020B0EB116F3F
:101290001CBF012070474EF21002CEF200025160D6
:1012A0004EF62351CEF20001F0230B70072190601F
:1012B00011607047002804BF0120704710B5044634
:1012C00090F8410028B9002084F84000204600F042
:1012D00063F8242084F841002068D4E90212C3682E
:1012E00023F40053C360036923F440531A4302619B
:1012F000D4E904231143C268194341F20C639A43B1
:101300001143C1604169A26921F44071114343F660
:101310000002C4F201029042416103D0FFF7B2FD26
:1013200002E000BFFFF7C2FD626819214843910047
:10133000B0FBF1F048F21F51C5F2EB11A0FB012305
:101340005A094FF69C73C0F6FF7302FB0300322369
:1013500003EB0010A0FB0101F02303EA5113206806
:1013600003EB0212C1F3431111448160016921F4BE
:1013700090410161416921F02A014161C16841F454
:101380000051C16000202021606484F8411084F87D
:101390004210606310BD00002DE9F04186B040F6B8
:1013A0000044C4F20104006804F53051002688426C
:1013B000049603D006B0BDE8F08100BF41F21800EA
:1013C000C4F20200016802AD41F48041016001688D
:1013D0004FF0020801F4804101910199016803274F
:1013E00041F004010160016801F0040101910199DB
:1013F000016841F0080101600068294600F008001A
:10140000019001984FF480500290A4F58060CDF8CF
:101410000C800597FFF74CF84020CDE902082046E4
:1014200029460597FFF744F88020CDE902062046BB
:1014300029460496FFF73CF80420C4F20100016835
:1014400041F0E06141F00401016006B0BDE8F081C7
:10145000FEE700002DE9F04383B0044600680D4626
:1014600001680A9F0B9E41F4807199469046016085
:1014700020464FF0011100223B46009600F0AEF8E6
:1014800050B120680068C00544BF4FF4007020646C
:10149000032003B0BDE8F083206805F0FE01016180
:1014A0000221C0F2010120463A46334600F080F99D
:1014B00020B1012003B0BDE8F08300BF00200290FE
:1014C000206832464169029180693946029002984B
:1014D000204600F0DDF958B1206C0428E9D12068DD
:1014E000016841F400710160012003B0BDE8F083A0
:1014F0002068B9F1010F0AD04FEA18210161204696
:101500003946324600F0C4F90028E5D120685FFA78
:1015100088F10161002003B0BDE8F08370B5036875
:10152000044653F8140F400711D40E46481C29D026
:1015300086BB00BF1868400527D4FFF7CDF82368A5
:1015400053F8140F400739D518684007F2D500202A
:1015500070BD00BF18684007F9D41868400514D45E
:1015600018684007F3D4186840050ED4186840077F
:10157000EDD41868400508D4186840074FF0000003
:1015800048BF70BD18684005E4D56FF480601860EE
:10159000042014E0154603E053F8140F4007D6D496
:1015A00018684005F1D4FFF797F8401B2368B04254
:1015B000F2D958694007EFD4202000E02020002114
:1015C0002022216384F83D2084F83E10226C1043D1
:1015D0002064012084F83C1070BD00002DE9F0412A
:1015E000054600681E46144601F47F0201338FB29F
:1015F00042D0DDF81880B2F5803F40F08780406926
:101600003840C01BB0FA80F04009A04240F0C880CA
:101610004EB924E040693840C01BB0FA80F0400960
:10162000A04240F0BD80FFF757F8A0EB0801286802
:10163000B142EFD941693940C91BB1FA81F1490979
:10164000A142E7D19BE000BF40693840C01BB0FA1F
:1016500080F04009A0424FF0000040F0A680FFF764
:101660003BF8286841693940C91BB1FA81F1490941
:10167000A142E9D183E000BFB2F5803F24D100BF91
:1016800041693940C91BB1FA81F14909A14240F0D1
:10169000878041693940C91BB1FA81F14909A142EA
:1016A00040F07E8041693940C91BB1FA81F1490996
:1016B000A14275D141693940C91BB1FA81F149098B
:1016C000A142DDD06CE000BF81693940C91BB1FA8D
:1016D00081F14909A14263D181693940C91BB1FA3D
:1016E00081F14909A1425BD181693940C91BB1FA35
:1016F00081F14909A14253D181693940C91BB1FA2D
:1017000081F14909A142DFD04AE000BF8069384039
:10171000C01BB0FA80F04009A04241D146B923E095
:1017200080693840C01BB0FA80F04009A0423BD12C
:10173000FEF7D2FFA0EB08012868B142F0D9816919
:101740003940C91BB1FA81F14909A142E8D116E03B
:1017500080693840C01BB0FA80F04009A0424FF0C9
:10176000000018BFBDE8F081FEF7B6FF2868816968
:101770003940C91BB1FA81F14909A142E8D10020E1
:101780002021286385F83D1085F83E00296C41F042
:101790002001296485F83C000120BDE8F08100BFEC
:1017A0000020BDE8F08100BF0020BDE8F08100000E
:1017B000F0B581B0044600681D4643698FB203EA64
:1017C0000701B94202D1002001B0F0BD41691646BF
:1017D000013201F4806125D0002940D1CEB100BF93
:1017E000FEF77AFF411B2068B14203D941693940B5
:1017F000B9424BD141693940B942E4D04169490508
:10180000EED52CE041693940B942DCD04169490547
:1018100025D4FEF761FF206841693940B942F1D013
:10182000202024E0D9B941693940B942CBD041697F
:10183000490514D441693940B942C4D041694905C8
:101840000DD441693940B942BDD04169490506D43A
:1018500041693940B942B6D041694905E3D50168CB
:1018600041F4007101606FF4806141610420002146
:101870002022216384F83D2084F83E10226C10431E
:10188000206484F83C10012001B0F0BD2020EEE778
:1018900070B50368044653F8140F000611D40E46C1
:1018A000481C29D086BB00BF1868400527D4FEF726
:1018B00013FF236853F8140F000639D51868000683
:1018C000F2D5002070BD00BF18680006F9D4186872
:1018D000400514D418680006F3D4186840050ED4E7
:1018E00018680006EDD41868400508D4186800068A
:1018F0004FF0000048BF70BD18684005E4D56FF494
:1019000080601860042014E0154603E053F8140FBB
:101910000006D6D418684005F1D4FEF7DDFE401B62
:101920002368B042F2D958690006EFD4202000E0C5
:10193000202000212022216384F83D2084F83E10DD
:10194000226C10432064012084F83C1070BD00001C
:101950002DE9F04188B0044601260DF11200602700
:101960004FF0FF35CDE900062046D4211022012397
:101970008DF8127002954FF01008FEF76FFF0DF111
:101980001300CDE900062046D421112201238DF851
:1019900013700295FEF762FF05A80027CDE9000647
:1019A0002046D421132201238DF814700295FEF7EE
:1019B00055FF0DF11500CDE900062046D421152272
:1019C00001238DF815700295FEF748FF0DF1160002
:1019D000CDE900062046D421162201238DF8167089
:1019E0000295FEF73BFFC0208DF817000DF11700A0
:1019F000CDE90006204632211F2201230295FEF781
:101A00002DFF77208DF8180006A8CDE900062046A6
:101A10003221202201230295FEF720FF0DF119004B
:101A2000CDE9000620463221212201238DF81970CC
:101A30000295FEF713FF0DF11A00CDE900062046CE
:101A40003221222201238DF81A700295FEF706FF3B
:101A500080208DF81B000DF11B00CDE9000620460B
:101A60003221232201230295FEF7F8FE07A89C27C6
:101A7000CDE9000620463221602201238DF81C703A
:101A80000295FEF7EBFE0DF11D00CDE900062046A4
:101A90003C21602201238DF81D700295FEF7DEFEC9
:101AA00002208DF81E000DF11E00CDE90006204633
:101AB0003C21612201230295FEF7D0FE0DF11F00AB
:101AC000CDE9000620463C21622201238DF81F80CB
:101AD0000295FEF7C3FE08B0BDE8F08180B582B084
:101AE00041F21400C4F202000168002241F0010139
:101AF00001600068002100F00100019001980E20B3
:101B0000FFF7A4F80E20FFF78DF80F200021002228
:101B1000FFF79CF80F20FFF785F810200021002226
:101B2000FFF794F81020FFF77DF811200021002224
:101B3000FFF78CF8112002B0BDE88040FFF772B8C3
:101B400070B584B041F21800C4F20200016840F69A
:101B5000004441F0100101600168C4F2010401F089
:101B60001001009100990168002241F020010160FC
:101B700001684FF4704501F020010091009901685F
:101B8000002641F008010160016801F008010091A0
:101B90000099016841F00401016000684FF4704150
:101BA00000F00400009000982046FEF78FFD012011
:101BB0000095CDE9010602206D4603902046294696
:101BC000FEF776FC4FF44070CDE90006A4F5806086
:101BD00029460296FEF76CFC04B070BD80B540F259
:101BE000801045F20041C2F20000C4F2000148F248
:101BF000A06200234FF4804CC0F2010280E80E0086
:101C0000C0E9033CC0E90533C0E90733FEF76AFDCC
:101C1000002808BF80BDBDE88040FEF72FBB000054
:101C200080B540F2D41045F60001C2F20000C4F2C3
:101C3000000148F2A06200234FF4804CC0F2010280
:101C400080E80E00C0E9033CC0E90533C0E9073372
:101C5000FEF748FD002808BF80BDBDE88040FEF7C4
:101C60000DBB000080B540F2282043F60001C2F20F
:101C70000000C4F2010100234FF00C0C4FF4807EF1
:101C80004FF4E13280E80E00C0E90333C0E905CE2D
:101C9000C361FFF70FFB002808BF80BDBDE880408F
:101CA000FEF7ECBAFEE70000FEE700007047000018
:101CB0007047000080B5FEF74DFF40F27020C2F281
:101CC000000001680131016080BD00007047000024
:101CD000FEE700002DE9F04794B00022CDE9112283
:101CE000CDE90F22DDE91043CDE90722CDE9052238
:101CF000C0E90443DDE90653CDE90122129E0566E1
:101D0000019DCDE90D22CDE90B2242F210784FF46E
:101D1000FA7CC0E90668DDE90C76C0E919C5DDE9A1
:101D20000E54CDE90922C0E9086500F128054FF0FD
:101D3000640E85E81041DDE90845CDE90322C0E9DC
:101D400010E300F14803C0E900228260DDE90A9A4D
:101D500083E83040C0E915C2C265DDE90232C0F84F
:101D60000C80C0E90D9AC763C0E91B32C0E91DC1F0
:101D700014B0BDE8F0870000A4B0FEF7F9FE00241F
:101D80000120CDE90544CDE90344009004904FF4CF
:101D900080104FF48031022509906846CDE9011486
:101DA000CDE90751FFF796F820B1EFF3108072B636
:101DB000FEE700BF0F20CDE91F054FF48060CDE99D
:101DC00022041FA801212194FEF77CFF20B1EFF32C
:101DD000108072B6FEE700BFFFF7B2FEFFF77EFE8F
:101DE000FFF7FCFEFFF71CFFFFF73CFF68460A21E8
:101DF000FFF770FF40F28010C2F20000FFF7A8FD6D
:101E000040F2D410C2F20000FFF7A2FDFEE700008E
:101E1000000000000000010203040607080900009A
:101E20000000010203040102020304050607080979
:101E30000A0B0C0D0E0F1010581E00080000002099
:101E40001000000028010008681E00081000002093
:101E500068080000440100080100000010000000B4
:081E600000127A0000000000EE
:04000005080000ED02
:00000001FF
