:020000040800F2
:1000000068090024A103000851520008814E00082D
:1000100049520008790B0008216D0008000000001B
:10002000000000000000000000000000B1540008C3
:10003000810B00080000000059520008B954000864
:10004000BB030008BB030008BB030008BB03000898
:10005000BB030008BB030008BB030008BB03000888
:10006000BB030008BB030008BB030008BB03000878
:10007000BB030008BB030008BB030008BB03000868
:10008000BB030008BB030008BB030008BB03000858
:10009000BB030008BB030008BB030008BB03000848
:1000A000BB030008BB030008BB030008BB03000838
:1000B000BB030008BB030008BB030008BB03000828
:1000C000BB030008BB030008BB030008BB03000818
:1000D000BB030008016D0008116D0008BB03000898
:1000E000BB030008BB03000800000000BB030008BE
:1000F000BB030008BB030008BB030008BB030008E8
:10010000BB030008BB030008BB030008BB030008D7
:10011000BB030008BB030008BB030008BB030008C7
:10012000BB030008BB030008BB030008BB030008B7
:10013000BB030008BB030008BB030008BB030008A7
:1001400000000000000000000000000000000000AF
:10015000BB030008BB030008BB030008BB03000887
:10016000BB030008BB030008BB030008BB03000877
:10017000BB030008BB030008BB030008000000002D
:10018000BB030008BB030008BB030008BB03000857
:10019000BB030008BB030008BB030008BB03000847
:1001A000BB030008BB030008BB03000800000000FD
:1001B000BB030008BB030008BB030008BB03000827
:1001C000BB030008BB0300080000000000000000A3
:1001D0000000000000000000BB0300080000000059
:1001E000000000000000000000000000000000000F
:1001F0000000000000000000BB030008BB03000873
:10020000BB030008BB03000800000000BB0300089C
:10021000BB030008BB030008BB030008BB030008C6
:10022000BB03000800000000BB0300080000000042
:10023000BB030008BB03000800000000BB0300086C
:10024000BB030008BB030008BB030008BB03000896
:10025000BB030008BB030008BB030008BB03000886
:10026000BB030008BB030008BB030008BB03000876
:10027000BB030008BB030008BB030008000000002C
:10028000BB030008BB030008BB030008BB03000856
:1002900000000000BB030008BB03000800000000D2
:1002A00000000000BB030008BB030008BB030008FC
:1002B000BB030008BB030008BB030008BB03000826
:1002C000BB030008BB030008BB03000800F002F8F2
:1002D00000F057F814A696E8000CB244B344DA458F
:1002E00001D100F04EF8BAE80F000FA696E83000F2
:1002F000A5EB040504EB0607AAEB0704A7F1010729
:100300004FEA15154FEA3414A4F10104AC4201D3AD
:1003100000F037F813F0010F18BFFB1A43F0010388
:1003200000F001F8DBE71847A46E0000C46E00007F
:10033000103A24BF78C878C1FAD8520724BF30C811
:1003400030C144BF04680C60704700007047000073
:100350000023002400250026103A28BF78C1FBD8CE
:10036000520728BF30C148BF0B607047782900F0A2
:10037000EB80002070471FB506F0DBFE1FBD10B5F7
:1003800010BD00F068FA1146FFF7F5FF06F0CCFC4F
:1003900000F086FA03B4FFF7F2FF03BC00F08EFA18
:1003A0000948804709480047FEE7FEE7FEE7FEE709
:1003B000FEE7FEE7FEE7FEE7FEE7FEE70448054945
:1003C000054A064B7047000089550008CD02000819
:1003D00068030024680900246805002468050024D7
:1003E00053EA020C00F069802DE9F04B4FF0000653
:1003F000002B1FBFB3FA83F503FA05F424FA05F6C0
:100400005E4012BF1643B2FA82F502FA05F4C5F156
:1004100020051EBF22FA05FC44EA0C04203556EAEA
:10042000044C4FEA144418BF641C4FF000084FF00E
:100430000009904271EB030C39D3002919BFB1FABE
:1004400081F701FA07F6B0FA80F700FA07F6C7F16C
:1004500020071EBF20FA07FC46EA0C062037B6FB31
:10046000F4FCA7EB0507103F07F01F0BCBF12006AC
:100470002CFA06F60CFA0BFB44BFB3460026202FDD
:10048000A4BF5E464FF0000B5BEA060C08BF4FF0BE
:10049000010B19EB0B0948EB0608ABFB027C06FBD2
:1004A00002CC0BFB03CCC01B71EB0C01C1E70B466C
:1004B000024641464846BDE8F08B13B5084318BFD5
:1004C0004FF0FF300146AFF30080BDE81C4070479D
:1004D0000FB41CB5074B06AA7B44694600900598EB
:1004E00000F0A1F90020694600F0B0F91CBC5DF8ED
:1004F00014FB00007103000070B5044685690068B4
:10050000C10601D5302600E02026C00707D070BD07
:10051000D4E9012130469047206A401C20626D1EBC
:10052000F6D570BD70B5044685690078C00707D15F
:1005300070BDD4E9012120209047206A401C206230
:100540006D1EF6D570BD000070B504460D462146FF
:100550001068AFF300802188090502D50F4A7A445C
:1005600002E00E4A7A440E32002104F1240305E031
:1005700000F00F060009965D5E54491C0028F7D173
:1005800020780023000704D5702D02D009B1022382
:1005900011322046BDE8704000F0E7B8EA6B000079
:1005A0002DE9F05F894604464FF0000ADFF824B1D8
:1005B000FB44C0F820A02046E168884700287DD091
:1005C000252806D0D4E901219047206A401C2062EA
:1005D000F1E700255F462046E16888472028064667
:1005E00007DB312E05D2B81910F8200C08B10543ED
:1005F000F1E7A80701D525F00405C4F81CA00027E1
:10060000C4F818A02A2E09D0304606F08BFD38B366
:1006100004EB8708303EC8F8186019E059F8041B4D
:10062000204604EB87029161E1688847012F064666
:1006300018D1E069002820DA25F020051DE0D8F85F
:10064000180000EB800006EB40003038C8F81800B6
:100650002046E1688847064606F064FD0028EED192
:10066000012F0AD02E2E08D12046E16888477F1C32
:100670000646022F45F02005C4DBA069002803DAF6
:10068000404245F00105A061E80701D025F01005C2
:10069000A6B1A6F14100192802D8203645F400651C
:1006A0004A463146204625604D46FFF75FFE60B161
:1006B000012807D0ED1D25F0070000E007E000F15C
:1006C000080978E705F1040975E730467AE7206AFA
:1006D000BDE8F09FC06B000010B5431C02E010F8AD
:1006E000011B71B18107FAD14FF0013202C88C1A97
:1006F0008C4314EAC211F9D0C01A0A0603D0C01EF6
:1007000010BDC01A10BD0A0401D0801E10BD090220
:10071000FCD0401E10BD4FF0000200B513469446B9
:100720009646203922BFA0E80C50A0E80C50B1F149
:100730002001BFF4F7AF090728BFA0E80C5048BF5D
:100740000CC05DF804EB890028BF40F8042B08BFFB
:10075000704748BF20F8022B11F0804F18BF00F8F7
:10076000012B70477047704770472DE9F0470D46E1
:1007700099469246044600F124080168880604D58B
:10078000E06921F01001216000E00120A84201DDB4
:10079000471B00E00027A1697A1902EB0900081A3B
:1007A000A0612078C00602D42046FFF7A5FE0026EF
:1007B00008E0D4E901211AF806009047206A401C9D
:1007C000761C20624E45F4DB2078C0060AD5204610
:1007D000FFF792FE06E0D4E9012130209047206A1D
:1007E000401C2062381EA7F10107F4DC07E0D4E9C1
:1007F000012118F805009047206A401C2062281E3D
:10080000A5F10105F3DC2046FFF78CFE20780006F9
:1008100002D50220BDE8F0870120FBE701694A1CF0
:1008200002610878704700B58FB0CDE90131002131
:10083000059105497944CDE9031011466846FFF753
:10084000AFFE0FB000BD0000E5FFFFFF0A6802F831
:10085000010B0A607047754600F02CF8AE460500A3
:100860006946534620F00700854618B020B5FFF7CB
:10087000A5FDBDE820404FF000064FF000074FF007
:1008800000084FF0000BAC46ACE8C009ACE8C0096A
:10089000ACE8C009ACE8C00921F007018D467047FB
:1008A00010B50446AFF300802046BDE81040FFF7C6
:1008B00071BD000000487047100000240149182055
:1008C000ABBEFEE7260002007047000000000000FB
:1008D00010B50446006842F2001140F48070C4F282
:1008E0000201884218D142F20830C4F202000068C6
:1008F00010F4403F18D003F003F96168B1F5803F70
:1009000005D0B1F5403F2BD0B1F5003F29D1090CFE
:10091000B0FBF1F025E000BF46F20830C5F602005A
:10092000006810F4403FE6D14FF40020002102F0AF
:100930008FF86168A1F580224FEAB2420A2A10D8E6
:10094000DFE802F0060606060606403E443C42008A
:100950006FF0010202EA5141B0FBF1F001E000BF8B
:1009600080084BF62141C0F2BE01884206D82068BB
:10097000816821F44071816010BD00BF47F64101DC
:10098000C0F27D11884207D820680122816862F395
:100990000921816010BD00BF21684FF28102C0F2C1
:1009A000FA229042886805D8022262F30920886002
:1009B00010BD00BF40F44070886010BDC009D0E792
:1009C0004009CEE70009CCE7000ACAE78009C8E77A
:1009D00070B5044600688268836802F0040203F080
:1009E0000803D2186CD0C268920121D5627E012A18
:1009F0001ED1227E012A1BD10168490613D44DF66F
:100A00000441C0F20C01043950D0026852065CBFA8
:100A100002685FEA426206D4026852065CBF02685E
:100A20005FEA4262EFD540210160012106E000BF8C
:100A3000022903D10221082612E000BF8268520772
:100A40000AD58268920707D44FF6C0738268C7F64A
:100A5000FF731A401032826001294FF0040610D053
:100A6000826812070AD58268920707D44FF6C073CE
:100A70008268C7F6FF731A4020328260032908BFDC
:100A80000C2601F0E5FB21688968314218D0054643
:100A900003E000BF8068304212D001F0D9FB401B58
:100AA00006282068F6D381683142F3D0206E40F0EA
:100AB00010002066606E40F001006066012070BD8D
:100AC000002070BD00000000F0B581B00446006851
:100AD0008168C9074AD14FF6C0778168C7F6FF77AA
:100AE00007F17F0211420BD0206E40F0100020660B
:100AF000606E40F001006066012001B0F0BD00BFF3
:100B00008168394041F00101816001F0A1FB42F2AE
:100B1000000246F20836C4F20202216802F5807330
:100B200002F54275C5F60206994208BF2E4691426B
:100B300008BF2E4699420546306814D110F01F00B8
:100B400014D110E08868C00704D18868384040F0AC
:100B50000100886001F07CFB401B2168032802D360
:100B60000868C007C0D00868C007EBD0002001B0FB
:100B7000F0BD000000000000FEE7000000000000E3
:100B80007047000000000000EFF3108072B600BF55
:100B9000FEE700000000000090F85C20012A01D16F
:100BA00002207047B0B582B042F2083200230193B0
:100BB000C4F202020093A2F542740368A34227D153
:100BC0004FF6006C4FF60055CFF6FF7CCFF6FF7561
:100BD00052F80C40535923435B0719D4D1F800E075
:100BE0001368BEF1000F23F440441FD04B68234329
:100BF0001360535952F80C502B43DB0722D1136872
:100C000040F61F75AB438968194341EA0E0118E0AD
:100C1000016E41F0200101660121002280F85C2074
:100C200002B0BDE8B0400846704700BF146051599B
:100C300052F80C301943C90704D1116840F61F73EC
:100C4000994311600021E8E72DE9F04381B00022CB
:100C5000009290F85C20012A04D10221084601B0DC
:100C6000BDE8F0830368012280F85C209A6852078F
:100C700000F1148246F2083C4FF6FF7EC5F6020CE6
:100C8000C0F20F0EACF542780C68434516D0B4F1B3
:100C9000FF3F13DD94FAA4F514EA0E0FB5FA85F5BB
:100CA0004FF0010608BFA50EA40E05F01F0506FAB9
:100CB00005F5DE693543DD6101E000BFA40E4D6836
:100CC0001F2204F01F04C5F3012605F01F05AA40EA
:100CD00003EB8606AC40376B27EA020222433263FD
:100CE0009A689C6802F0040204F00804121940F0AB
:100CF00004810A6807268D684345C2F34064C2F345
:100D0000045203EB840406FA02F6676905FA02F25C
:100D100027EA060642EA0602626117D041F20002A3
:100D2000C5F60042126802F07042B2F1805F73D1E2
:100D30004A69DC680E2505EA540402FA04F90C69D4
:100D40004F46042C00F08280A8E000BF4FF604520A
:100D5000CFF6FF72D1E90445042C5CF8026065D13E
:100D60004FF65852CFF6FF725CF802201A6E0E68EA
:100D7000C2F3846216EA0E04C6F3846596FAA6F6F8
:100D8000B6FA86F6374608BF2F46BA420CD11A6E1D
:100D900022F000421A660A6802EA0E04C2F3846571
:100DA00092FAA2F2B2FA82F65A6E37465A6E002CC6
:100DB00008BF2F46C2F38462BA420CD15A6E22F0A9
:100DC00000425A660A6802EA0E04C2F3846592FA87
:100DD000A2F2B2FA82F69A6E37469A6E002C08BFDB
:100DE0002F46C2F38462BA420CD19A6E22F00042BE
:100DF0009A660A6802EA0E04C2F3846592FAA2F2C5
:100E0000B2FA82F6DA6E002CDA6E08BF2E46C2F312
:100E10008462B2423AD070E0DA684C69DD68D2068A
:100E20004FEA55050AD405F00E0209E006224FF0FC
:100E3000004902EA960205FA02F72FE005F00802DF
:100E400004FA02F90C694F46042C27D11A6E0C687B
:100E500002F0F842A406A24240F082801A6E22F00C
:100E600000421A665A6E02F0F842A24200F07E80FA
:100E70009A6E02F0F842A24203D19A6E22F000422A
:100E80009A66DA6E02F0F842A24236D1DA6E22F0A9
:100E90000042DA669A68D20733D0B8E003F1600600
:100EA0000A68434502F0F84256F8245042EA090223
:100EB00018BF05F00047434542EA070246F82420E0
:100EC0000C695FD091F821200D7E56F8247027F030
:100ED0000047012A08BF07F100476A1EB2FA82F2F2
:100EE00046F8247052090C69D2021D6904F01F04EF
:100EF00025F4F045A2402A431A619A68D20740F0CF
:100F00008680ACF51672434518BF03F1C002CD6868
:100F10000C6805F01805166804EA0E072EFA05F5A8
:100F2000BE432C40344314600024CA68C4F2FF74EA
:100F3000A24268D10C6814EA0E0F3FD094FAA4F2D2
:100F4000B2FA82F2013202F01E07092F02F01F07E7
:100F50003DD8012207EB4706BA4042EA065742E075
:100F60005A6E02F0F842A2427FF482AF5A6E22F02B
:100F700000425A669A6E02F0F842A2423FF47DAFF8
:100F80007FE700BFACF52A72CD6952F8246026F0E5
:100F90008076354342F824500C6991F8205052F87D
:100FA0002460012D26F0007608BF06F1007642F895
:100FB00024609A68D207A4D029E000BF012202EB86
:100FC000946202F01E070A2F02F01F07C1D301220C
:100FD00007EB4706BA400027CFF6206707EB065716
:100FE0003A4342F00077C7F340620725C7F304573E
:100FF0008E6803EB8202BD40546906FA07F724EAC3
:1010000005052F4357610E68B6F1FF3F02DD002151
:1010100049E000BF42F2000142F20015C4F20201B1
:10102000C4F2020501F5807201F5427793426246EF
:1010300008BF3A468B4208BF3A4643F48077AF4236
:10104000156823D18A68D1F808111143C90725D141
:10105000002105F0E074CCF252718E4208BF15F405
:10106000000127D00021CCF221318E4260D1002135
:10107000B1EB146F5CD1434515D1DCF8001021F0C1
:10108000E071214341F0807165E000BF4FF60051EF
:10109000CFF6FF715CF80110C907D9D0016E41F09D
:1010A000200101660121002280F85C20084601B081
:1010B000BDE8F0834345AAD1DCF8001042F6635244
:1010C00021F0E071C0F23E52214341F40001CCF81E
:1010D000001040F20801C2F2004109688909A1FB31
:1010E00002129109022202EB4101009100990029AC
:1010F0008DD0009901390091009900293FF487AF04
:10110000009901390091009900293FF480AF0099BE
:1011100001390091009900293FF479AF0099013914
:101120000091009900294FF00001E2D1BBE700BF18
:1011300043454FF00001B6D10022CCF684329642EE
:1011400008BF15F48002AED1DCF8001021F0E07188
:10115000214341F48001CCF800100021A3E70000F6
:101160000068006C70470000F0B581B04FF00001DE
:10117000009178B3016E39B9044600F07DF920463C
:101180000021616684F85C1001688A6892004FF65D
:10119000C072C5F6FF7202D58B6813408B608B68F6
:1011A000DB0032D48B6802F180521A4042F663535E
:1011B00042F080528A6040F20802C0F23E53C2F20E
:1011C000004212689209A2FB0323012202EB931250
:1011D00006E000BF0124204601B0F0BD009A013AAC
:1011E0000092009A8AB1009A013A0092009A62B184
:1011F000009A013A0092009A002A1FBF009A013A11
:101200000092009A18BF002AE8D18A68D20009D457
:10121000026E012442F010020266426E42F00102A8
:10122000426600E000248A68036E03F0100302F0B7
:101230000402D218026E59D122F4817246F2100CC7
:10124000023202668A68C5F6020CD20724D142F245
:10125000001341F48072C4F202039A4242F2000287
:10126000C4F2020240F0F0809368D2F808512B4398
:10127000DB0711D102F5807302F5427599422B46C6
:1012800018BF0CF53E73914208BF2B4642681D689B
:1012900025F47C152A431A60427EC56BACF110061A
:1012A000B14245EA423529D082682A4390F820505D
:1012B000012D42EA054506D1426A0023CFF6FE73AE
:1012C00003EB42421543826A22B102F47872C36A88
:1012D0001A431543B1421FD04CF20303CA68CFF63C
:1012E000F0731A402A43CA6028E000BF42F01001A0
:1012F00001240166204601B0F0BD00BFD0E9022EF6
:10130000082A00F0A9800C2A00F0A4801C2A40F0D2
:10131000A5801022A5E000BF44F207035CF8042C6E
:10132000CFF6F0731A402A434CF8042CDCF8002066
:10133000436B22F040621A43CCF800208A688B6825
:1013400002F0040203F00803D2186AD1027EB1420F
:101350004FEA823226D0036BCF6844F20305AF43D5
:101360003B431A43CA6090F84420012A48D14FF603
:101370001E030A69CFF600430125D0E912761A4010
:10138000CFF6FF7505EB07473243066D3A43476DCD
:101390003243036C3A430A610A6922F070421A43ED
:1013A0000A613AE05CF8043C90F8385044F2030ECD
:1013B00090F8447023EA0E0343EA4503012F42EA02
:1013C00003024CF8042C1BD14FF61E02DCF800106F
:1013D000CFF600421140D0E912231143026D1943A8
:1013E000436D1143026C194341F00101CCF8001028
:1013F000DCF8001021F070411143CCF8001010E02F
:101400000A69B14222F001020A610A69036C22F002
:10141000704242EA03020A6103D00546FFF758FA18
:101420002846016802690B6B012A23F00F0202D1E2
:10143000C369013B1A430A630122016E62F3010191
:101440000166204601B0F0BD5CF8083CDB073FF4C4
:1014500011AF21E7082204E0002202E0182A18BF99
:10146000002242EA0E022A4390F82050012D42EA5F
:1014700005453FF421AF26E780B586B042F2001261
:101480000068C4F20202002190420591CDE90311E7
:10149000CDE9011128D042F20001C4F202018842D4
:1014A00050D140F2B00144F2D840C2F20041C5F63A
:1014B00002000A68002A02F101020A6008D10168EC
:1014C00041F020010160016801F0200100910099C4
:1014D000816841F020018160806800F02000009068
:1014E00000984FF4006021E040F2B00144F2D8408F
:1014F000C2F20041C5F602000A68002A02F10102A8
:101500000A6008D1016841F020010160016801F022
:10151000200100910099816841F02001816080687C
:1015200000F02000009000984FF40050019003203C
:1015300002900020039041F20040C5F6020001A98C
:1015400000F09AFD06B080BD2DE9F04F81B042F267
:10155000000746F20832C4F202070446006807F5A5
:10156000807907F54273C5F6020248458B4608BFED
:101570001A46B84208BF1A46D4F814801368B8F166
:10158000080F03F01F0A01D108250DE0BAF1090F79
:101590003AD8012140F2212301FA0AF1194233D04D
:1015A000C068C00734D1042500F052FE21680A68E3
:1015B0002A4241D106461BF1010034D0BBF1000F95
:1015C0000DD100BF00F044FE2168086828420FD00A
:1015D00008682842F6D02FE0086828422CD100F095
:1015E00037FE801B21685845F6D908682842F3D198
:1015F000206E40F004002066002084F85C00032088
:1016000001B0BDE8F08F00BF106810F4404FCAD0A1
:10161000206E40F020002066012001B0BDE8F08F70
:101620000868284208D10868284205D1086828427D
:1016300004BF08682842F3D0206E40F40070206692
:10164000C86810F4406F0FD1607E68B90868000761
:101650000AD5206E20F480702066206EC00403D46A
:10166000206E40F001002066494518BF0F46BAF1D0
:10167000090F384608BF0846BAF1050F08BF0846EB
:10168000BAF1000F08BF08468F4208BF3846B8F1CC
:10169000080FC06802D1082003E000BF400401D455
:1016A0000C200860002001B0BDE8F08F00000000B1
:1016B000F0B581B042F2000446F20833C4F20204ED
:1016C000016804F5807504F54272C5F60203A9426B
:1016D00008BF1346A14208BF13461E688968490720
:1016E00003D490F85C10012902D1022001B0F0BDB2
:1016F000012180F85C100746FFF7E6F930B10020C1
:1017000087F85C00012001B0F0BD00BF39683846A1
:10171000A94206F01F0218BF0C463B6E40F6017648
:10172000671A23EA0606B7FA87F77F09FB0706F56B
:101730008077076600D11AB9076E27F4801707660D
:10174000076E0026FF044FF0000744BF476E27F0E6
:10175000060747664FF01C070F6080F85C6043B9CE
:10176000092A19D8012303FA02F240F221231A426E
:1017700012D0CA68920104D5026E012363F30D32C0
:1017800002664FF6C0728868C7F6FF7210400430D8
:101790008860002001B0F0BD016E41F48011016647
:1017A000E1688901F5D5016E012262F30D31016610
:1017B000002001B0F0BD0000B0B5044690F85C0018
:1017C000012801D10220B0BD03212046012584F863
:1017D0005C50FFF7FDF828B1002084F85C00284633
:1017E000B0BD00BF206881688268D20717D011F0B1
:1017F000020114D1816801F00D01012926D14FF6B3
:10180000C0728168C7F6FF72114002318160032106
:10181000016000F01DFD21688968C90708D12046D4
:1018200041F20112002550F8601F914316E000BFFD
:10183000054602E08068C007F1D000F009FD401BBA
:1018400003282068F6D38168C907F3D0206E0125EC
:1018500040F010002066204650F8641F41F001015E
:101860000160002084F85C002846B0BD0000000044
:101870002DE9F041044600F0EBFC1CB3054694F85A
:101880003500022822D140F20F472668C4F2020731
:1018900040F26F48BE426FF00E00C4F202081DDC39
:1018A0006F21C4F202018E422ADC3F21C4F2020100
:1018B0008E4241DC1021C4F202018E4263D0282105
:1018C0005CE000BF0120BDE8F08100BF80206065C2
:1018D0000120002184F83410BDE8F08146451BDC6E
:1018E00040F23F41C4F202018E422DDC40F2104131
:1018F000C4F202018E4246D040F228413EE000BFD1
:101900009F21C4F202018E4228DC7021C4F2020140
:101910008E4238D0882131E040F29F41C4F202016A
:101920008E4223DC40F27041C4F202018E422AD082
:1019300040F2884122E000BF4021C4F202018E4201
:1019400021D058211AE000BF40F24041C4F2020108
:101950008E4218D040F2584110E000BFA021C4F2DE
:1019600002018E420FD0B82108E000BF40F2B8411A
:10197000C4F202018E4206D040F2A041C4F202013C
:101980008E42314607D13146306820F01E0041F8C2
:10199000140B6FF080000A68464500EA02000860F8
:1019A0001ADC9F20C4F20200864233DC5720C4F2C6
:1019B000020086425ADC1020C4F20200864200F087
:1019C00097802820C4F20200864200F091804020D7
:1019D000C4F202008AE000BF45F22F40C5F60200C3
:1019E00086422DDC40F2B740C4F2020086424BDC56
:1019F00040F27040C4F20200864279D040F2884042
:101A0000C4F20200864273D040F2A040C4F2020049
:101A10006CE000BF40F22740C4F20200864243DC83
:101A2000A020C4F20200864262D0B820C4F20200B4
:101A300086425DD040F21040C4F2020056E000BF82
:101A400045F26B40C5F6020086423FDC45F230406D
:101A5000C5F6020086424BD045F24440C5F602006E
:101A6000864245D045F258403EE000BF5820C4F2BF
:101A7000020086423CD07020C4F20200864237D079
:101A80008820C4F2020031E040F2B840C4F2020003
:101A900086422DD045F20840C5F60200864227D086
:101AA00045F21C4020E000BF40F22840C4F2020092
:101AB00086421DD040F24040C4F20200864217D058
:101AC00040F25840C4F2020010E000BF45F26C4002
:101AD000C5F6020086420BD045F29440C5F60200DE
:101AE000864205D045F28040C5F60200864204D108
:101AF000206E016821F480710160306820F00100DF
:101B0000306000BF3068C00710D000F0A1FB401B60
:101B10000628F7D320206065032084F835000120D3
:101B2000002184F83410BDE8F08100BF206808214E
:101B3000B8424FF03F0211DC6F23C4F20203984217
:101B40001EDC3F23C4F20203984235DC1023C4F2AA
:101B50000203984257D0282350E000BF40451BDCC9
:101B600040F23F43C4F2020398422DDC40F210439E
:101B7000C4F20203984246D040F228433EE000BF40
:101B80009F23C4F20203984228DC7023C4F20203AC
:101B9000984238D0882331E040F29F43C4F20203D8
:101BA000984223DC40F27043C4F2020398422AD0E8
:101BB00040F2884322E000BF4023C4F2020398426F
:101BC00021D058231AE000BF40F24043C4F2020380
:101BD000984218D040F2584310E000BFA023C4F24E
:101BE000020398420FD0B82308E000BF40F2A043A0
:101BF000C4F20203984206D040F2B843C4F2020392
:101C0000984240F0C580D4E9163707F01F074045D9
:101C100002FA07F25A5019DC9F21C4F202018842ED
:101C200032DC5721C4F20201884259DC1021C4F28F
:101C30000201884200F096802821C4F20201884205
:101C400000F090804021C4F2020189E045F22F416A
:101C5000C5F6020188422DDC40F2B741C4F2020110
:101C600088424BDC40F27041C4F20201884279D0D4
:101C700040F28841C4F20201884273D040F2A04190
:101C8000C4F202016CE000BF40F22741C4F202013D
:101C9000884243DCA021C4F20201884262D0B8210C
:101CA000C4F2020188425DD040F21041C4F2020148
:101CB00056E000BF45F26B41C5F6020188423FDCA9
:101CC00045F23041C5F6020188424BD045F244410D
:101CD000C5F60201884245D045F258413EE000BFBA
:101CE0005821C4F2020188423CD07021C4F20201A2
:101CF000884237D08821C4F2020131E040F2B84175
:101D0000C4F2020188422DD045F20841C5F6020115
:101D1000884227D045F21C4120E000BF40F2284114
:101D2000C4F2020188421DD040F24041C4F20201D7
:101D3000884217D040F25841C4F2020110E000BFBF
:101D400045F26C41C5F6020188420BD045F2944140
:101D5000C5F60201884205D045F28041C5F6020170
:101D600088420BD1616EA26EE06E4A6030B10168AC
:101D700021F480710160D4E91C014160012084F8E4
:101D800035000020002184F83410BDE8F08100BF48
:101D90000421012237E70000F0B190F83510022944
:101DA00018D180B540F20F420168C4F2020291429C
:101DB00014DC6F23C4F20203994225DC3F23C4F2F2
:101DC000020399423CDC1023C4F2020399425DD025
:101DD000282357E0802141650120704740F26F437E
:101DE000C4F2020399421BDC40F23F43C4F20203F7
:101DF00099422DDC40F21043C4F20203994245D0CF
:101E000040F228433EE000BF9F23C4F20203994200
:101E100028DC7023C4F20203994237D0882331E0D2
:101E200040F29F43C4F20203994223DC40F2704324
:101E3000C4F20203994229D040F2884322E000BF55
:101E40004023C4F20203994220D058231AE000BF75
:101E500040F24043C4F20203994217D040F2584383
:101E600010E000BFA023C4F2020399420ED0B823B1
:101E700008E000BF40F2B843C4F20203994205D023
:101E800040F2A043C4F20203994275D191424FF04F
:101E9000040280F8352011DC6F20C4F20200814278
:101EA00022DC3F20C4F20200814239DC1020C4F25F
:101EB0000200814259D0282054E000BF40F26F4018
:101EC000C4F2020081421BDC40F23F40C4F2020037
:101ED00081422DDC40F21040C4F20200814244D025
:101EE00040F228403EE000BF9F20C4F20200814241
:101EF00028DC7020C4F20200814236D0882031E014
:101F000040F29F40C4F20200814223DC40F2704064
:101F1000C4F20200814228D040F2884022E000BF93
:101F20004020C4F2020081421FD058201AE000BFB6
:101F300040F24040C4F20200814216D040F25840C4
:101F400010E000BFA020C4F2020081420DD0B820F2
:101F500008E000BF40F2B840C4F20200814204D061
:101F600040F2A040C4F202008142086820F0010063
:101F70000860002080BD00BF0A6822F00E020A60DF
:101F800045F25742C5F6020291420A6822F0010268
:101F90000A600FDC45F22F42C5F60202914219DCBD
:101FA00045F20842C5F60202914229D045F21C4290
:101FB00022E000BF45F27F42C5F60202914213DCE7
:101FC00045F25842C5F60202914219D045F26C42E0
:101FD00012E000BF45F23042C5F6020291420FD036
:101FE00045F2444208E000BF45F29442C5F60202C1
:101FF000914205D045F28042C5F6020291421AD1C3
:10200000D0E9181CD0E916E30A6822F480720A604D
:1020100003F01F01012202FA01F1CEF80410816ED3
:10202000CCF80410C16E31B10A6822F480720A60E3
:10203000D0E91C124A60012180F83510016D0022A0
:10204000002980F8342094D08847002080BD00000B
:10205000B0B5044600F0FCF840F200010546C2F2BB
:102060000041621C097818BF0C4400BF00F0F0F872
:10207000401BA042FAD3B0BD2DE9F04F83B00F68EA
:10208000002F00F0C98000F1264642F2004506F11B
:10209000FF76C5F602050A22A8424FEAB62540F2AD
:1020A000040C08BF092200F120030093082DC5F697
:1020B000000C38BF4FEAB622002400264FF000087B
:1020C00001920AE008F101080F6837FA08F206F1F8
:1020D000020604F1040400F09F80012202FA08FEC7
:1020E00017EA0E09EED0D1F804B003220BF0030773
:1020F000B2407D1E6FEA020A012D11D88268CD68B8
:1021000002EA0A02B5402A438260CBF30015426816
:1021100022EA0E0205FA08F52A43426004E000BFF5
:10212000032F01D103271FE0C2688D6802EA0A026B
:10213000B540022F42EA0502C26015D16FF00302DA
:1021400004F01C0502EA580B009A0F2352F80BE02A
:10215000AB400F692EEA0303AF403B4342F80B301C
:10216000D1F804B00BF00307026807FA06F302EA9D
:102170000A021BF4403F42EA03020260A2D044F28A
:10218000F44340F2084EC5F60203C5F6000E0F25D3
:102190001A6842F002021A601A6802F00202029201
:1021A00028F00302029B04F00C0352F80E709D40CD
:1021B000AF43019D05FA03F33B4342F80E304FF065
:1021C000B04EDEF800204B6842EA0907DD0258BF36
:1021D00022EA09079D02CEF80070DCF8002042EAEE
:1021E000090758BF22EA09079D03CCF80070DCF804
:1021F000802042EA090758BF22EA0907DB03CCF82E
:102200008070DCF87C2042EA090758BF22EA0907FF
:10221000CCF87C7056E700BF03B0BDE8F08F00003B
:102220000069084018BF012070470000000000004E
:10223000426902EA0103914341EA03418161704727
:10224000002A08BF090481617047000000000000F7
:1022500040F26430C2F200400068704700000000A5
:1022600090F84120202A03D190F84020012A01D182
:1022700002207047242280F841200268136823F06E
:1022800001031360136823F4805313601368194328
:102290001160116841F001011160202180F84110A6
:1022A000002180F84010002070470000000000006E
:1022B00090F84120202A03D190F84020012A01D132
:1022C00002207047242280F841200268136823F01E
:1022D00001031360136823F4706343EA0121116062
:1022E000116841F001011160202180F841100021A6
:1022F00080F840100020704710B310B590F84110DE
:1023000031B9002180F84010044600F04DF8204615
:10231000242180F8411090E81210C3680A68012B4C
:1023200022F001020A6024F070620A618A6822F4D5
:1023300000428A6006D14CF400428A600CE000BF83
:1023400001207047022B4CF404428A6004D14A6891
:1023500042F4006203E000BF4A6822F400624A606F
:1023600000F1100C4A6842F0007242F400424A60E8
:10237000CA6822F40042CA609CE81C101A4342EA70
:102380000422CA60026A42EA0C020A600A6842F049
:1023900001020A6000214164202280F8412001638B
:1023A00080F84210002010BDB0B5B6B0044602A8B7
:1023B000B8210025CDE93455CDE932553195FEF7E8
:1023C000AAF945F600012068C4F20001884233D022
:1023D00045F20041C4F2000188425ED1082002901B
:1023E00002A80024039400F01FFD08B1FEF7CCFB07
:1023F00044F2E04531A9C5F60205286840F0020024
:102400002860286800F0020001900198C0203190F7
:102410001220CDE932040420359040F2004034947B
:10242000C5F60200FFF728FEA86840F40010A86077
:10243000A86800F400102EE00820029002A803957E
:1024400000F0F2FC08B1FEF79FFB44F2E04440F2DA
:102450000041C5F60204C5F60201206840F02000E4
:102460002060206800F02000019001980320319046
:10247000122032900020CDE933000420359001F580
:10248000805031A9FFF7F8FDA06840F48000A060FB
:10249000A06800F480000190019836B0B0BD000043
:1024A00040F2000040F26431C2F20040C2F200414A
:1024B00000780A68104408607047000000000000BF
:1024C00080B5032000F0ACF801F0A2FB44F2184103
:1024D00047F29113C5F60201C0F600030A68C2F381
:1024E00003229A5C096801F00F0102F01F02595C97
:1024F000D04040F20C02C2F2004201F01F0120FA6B
:1025000001F1116040F20801C2F2004108600F20A1
:1025100000F00AF800281CBF012080BD00F02CF854
:10252000002080BD00000000B0B540F20005C2F2FE
:1025300000452978F1B1044640F20800C2F200409B
:102540004FF47A72B2FBF1F10068B0FBF1F001F0E8
:1025500083FE0F2C01464FF001000AD8002918BF56
:10256000B0BD4FF0FF300022214600F029F80020D6
:102570006C60B0BD0120B0BD81B044F2F440C5F63E
:102580000200016841F002010160006800F00200F1
:102590000090009801B07047002848BF704700F0D5
:1025A0001F01012202FA01F14EF20012C0F34A109B
:1025B000CEF2000242F82010704700000000000038
:1025C00070B54EF60C5C4FF0FF36CEF2000C00F109
:1025D000604505F56445DCF80030C3F3022E8EF04B
:1025E0000703042B28BF0423BEF1030406FA03F3F8
:1025F00021EA030100F00F0338BF0024043B002848
:10260000634406FA04F048BF03F10C05A14022EA36
:10261000000008430001287070BD000000000000A9
:102620004EF60C514FF6FF03CEF200010A681A4035
:1026300060F30A2242F0806040F0FD70086070474D
:10264000B0B544F60C05C5F60205296849072968A6
:1026500006D401F00701081A18BF0120B0BD00BF61
:1026600021F0070108432860FFF7F2FD044600BF90
:1026700055F8080C800407D4FFF7EAFD001BB0F5FD
:102680007A7FF5D90120B0BD0020B0BD0000000068
:1026900080B501F035FA44F2204147F29112C5F6B7
:1026A0000201C0F600020968C1F30211515C01F099
:1026B0001F01C84080BD000080B544F2304EC5F611
:1026C000020E5EF8083C5EF8081CC1F3051C5EF8BB
:1026D000041CBCF1000FDEF8042019D001F0010148
:1026E000494201EAD20103F003026FF35F31022A8B
:1026F00000EE101AB8EE400A14D0012A0ED01AB912
:102700005EF8301C890611D49FED361A1CE000BF1C
:1027100000218160C0E9001180BD00BF9FED2F1A2C
:1027200012E000BF9FED2E1A0EE000BF5EF8301CD5
:1027300049F20002C0F2D032C1F3C10122FA01F124
:1027400001EE101AB8EE411ADEF800109FED263A9D
:102750006FF35F2102EE101ADEF80010C1F346217C
:10276000B8EE422A00EE032A00EE10CAB7EE003A95
:10277000B8EE400A81EE000A32EE031A02EE101A99
:10278000B8EE422A20EE010A32EE031A80EE011A58
:10279000BCEEC11A80ED001ADEF80010C1F306414C
:1027A00001EE101AB8EE411A31EE031A80EE011A4A
:1027B000BCEEC11A80ED011ADEF80010C1F306610B
:1027C00001EE101AB8EE411A31EE031A80EE010A3A
:1027D000BCEEC00A10EE101A816080BD0024744A5D
:1027E00020BCBE4B0024744C0000003900000000E7
:1027F00080B544F2384EC5F6020E5EF8103C5EF825
:10280000101C5EF80C2CC1F3053CDEF80410BCF182
:10281000000F15D0C908D20601EAE2716FF35F31EB
:1028200000EE101A03F003010229B8EE400A0DD0A1
:1028300081B95EF8381C890610D49FED361A1BE06A
:1028400000218160C0E9001180BD00BF9FED301AFA
:1028500012E000BF9FED2D1A0EE000BF5EF8381C9D
:1028600049F20002C0F2D032C1F3C10122FA01F1F3
:1028700001EE101AB8EE411ADEF800109FED263A6C
:102880006FF35F2102EE101ADEF80010C1F346214B
:10289000B8EE422A00EE032A00EE10CAB7EE003A64
:1028A000B8EE400A81EE000A32EE031A02EE101A68
:1028B000B8EE422A20EE010A32EE031A80EE011A27
:1028C000BCEEC11A80ED001ADEF80010C1F306411B
:1028D00001EE101AB8EE411A31EE031A80EE011A19
:1028E000BCEEC11A80ED011ADEF80010C1F30661DA
:1028F00001EE101AB8EE411A31EE031A80EE010A09
:10290000BCEEC00A10EE101A816080BD0024744A2B
:1029100020BCBE4B0024744C0000003900000000B5
:1029200080B544F2404EC5F6020E5EF8183C5EF8E3
:10293000181C5EF8142CC1F3055CDEF80410BCF121
:10294000000F15D0C908D20501EAE2716FF35F31BB
:1029500000EE101A03F003010229B8EE400A0DD070
:1029600081B95EF8401C890610D49FED361A1BE031
:1029700000218160C0E9001180BD00BF9FED301AC9
:1029800012E000BF9FED2D1A0EE000BF5EF8401C64
:1029900049F20002C0F2D032C1F3C10122FA01F1C2
:1029A00001EE101AB8EE411ADEF800109FED263A3B
:1029B0006FF35F2102EE101ADEF80010C1F346211A
:1029C000B8EE422A00EE032A00EE10CAB7EE003A33
:1029D000B8EE400A81EE000A32EE031A02EE101A37
:1029E000B8EE422A20EE010A32EE031A80EE011AF6
:1029F000BCEEC11A80ED001ADEF80010C1F30641EA
:102A000001EE101AB8EE411A31EE031A80EE011AE7
:102A1000BCEEC11A80ED011ADEF80010C1F30661A8
:102A200001EE101AB8EE411A31EE031A80EE010AD7
:102A3000BCEEC00A10EE101A816080BD0024744AFA
:102A400020BCBE4B0024744C000000390000000084
:102A500010B584B0024641F6FF7300209B1A70EB5C
:102A600001032DDA47F6FF739B1A70EB010380F226
:102A7000878082F400430B4300F0EA8082F48033C5
:102A80000B4300F0098182F40022114340F0918150
:102A900044F20040C5F60200816D01F44031B1F509
:102AA000003F00F03781B1F5803F00F02981002917
:102AB00040F01F810068000100F1018119E100BFB1
:102AC00040F2FF739B1A70EB01032DDB82F48073DD
:102AD0000B4300F0818082F48062114340F06981F1
:102AE00044F20041C5F60201886DC0F34252042A47
:102AF00000F2FF8048F20000C0F2BB00DFE812F0F5
:102B0000A600DC00E6005901060000BFC86C0A6898
:102B1000520700F04052086802D5002A00F05081A8
:102B2000C00500F10E810FE182F400630B4300F059
:102B30007B8082F48052114340F03B8144F200419B
:102B4000C5F60201086DC0F30232042A00F2D180FA
:102B500048F20000C0F2BB00DFE812F07800AE00DF
:102B6000B8002B01060000BFC86C0A68520700F0CD
:102B70004052086840F1E380002A00F02181DEE045
:102B800082F400530B4300F0738082F480421143BF
:102B900040F00F8144F20044C5F60204A06DC0F37A
:102BA0000270052800F2A580DFE810F00600F400AE
:102BB000E200EE00E000140100F0A2FF216A47F2FB
:102BC0009112C0F60002C1F30211515C01F01F0125
:102BD000C84004B010BD00BF44F20041C5F6020178
:102BE000086D00F00702042A00F2838048F200001A
:102BF000C0F2BB00DFE812F02A0060006A00DD00CE
:102C0000060000BFC86C0A68520700F0405208680E
:102C100002D5002A00F0D480C00540F19580B2F1C1
:102C2000805F00F0E6808FE044F20041C5F60201CB
:102C3000886DC0F30262042A5BD848F20000C0F23B
:102C4000BB00DFE802F0033943B6730008684EE0CA
:102C500044F20040C5F60200016D01F04051B1F1AF
:102C6000005F3DD0B1F1805F40D000293CD040E012
:102C700044F20040C5F60200016DC1F3024105298E
:102C800037D8DFE801F0032D8F99773104B0BDE824
:102C9000104000F05DBF00BF44F20040C5F60200E6
:102CA000C16C0068C90322D5000122D501A8FFF735
:102CB0009FFD039804B010BD0868000119D501A854
:102CC000FFF796FD019804B010BD00BF08688000B2
:102CD0000FD501A8FFF724FE019804B010BD00BF76
:102CE0000068000105D558E0006874E000688001C4
:102CF00002D4002004B010BD01A8FFF7DDFC57E0AE
:102D000000688000F5D501A8FFF70AFE039804B01B
:102D100010BD00BFC16C0268520701F0405102684B
:102D200062D5002960D1C2F3C1004BE0C86C0A68CB
:102D3000520700F04052086801D5002A40D0C00573
:102D400002D5B2F1805F54D00868B2F1005F00F4A0
:102D500000314FF0000004BF47F64000C0F27D1084
:102D6000002908BF084604B010BD00BF206802E07B
:102D7000206818E0006840F60011C005C0F23D016F
:102D800001EAE07004B010BD20684007B1D52068AA
:102D900016E000BF20680001ABD501A8FFF728FDB1
:102DA00006E000BF00688000A3D501A8FFF7B8FDCA
:102DB000029804B010BD00BF0168490799D50068AA
:102DC000C0F3C10049F20001C0F2D03121FA00F095
:102DD00004B010BD206847F640018003C0F27D11A9
:102DE00001EAE07004B010BDD20509D5B1F1805FF1
:102DF00006D140F60010C0F23D0004B010BD00BF87
:102E00000068B1F1005F00F400324FF0000004BF31
:102E100047F64000C0F27D10002A08BF104604B0FB
:102E200010BD0000000000002DE9F0470446C07806
:102E300044F22C480007C5F6020828D5606E4FEA18
:102E4000305103292AD8DFE801F0030B131B00BF20
:102E5000D8F8001041F40031C8F8001010E000BFAD
:102E600004F10800022102F0FBF9064680B906E0F1
:102E700004F12800022102F087FA064640B9606E8C
:102E8000D8F8241021F440110843C8F82400002683
:102E90006078C00706D135462FE000BF0126607874
:102EA000C007F8D0A06D04283ED83546DFE800F012
:102EB00004140E0B0B0000BFD8F80000354640F498
:102EC0000030C8F800002F46C5B90DE004F1280015
:102ED000002102F059FA04E004F10800002102F098
:102EE000BFF905462F464DB9D8F82400A16D20F052
:102EF000070000250843C8F82400374660784007DB
:102F00003AD5D4F8A4004FEA7050052818D8DFE865
:102F100000F0031D11232323D8F8000040F40030F3
:102F2000C8F8000018E000BF0125012760784007BD
:102F3000E7D421E004F12800002102F025FA0AE09C
:102F400001250126607800071AD44FE004F108003B
:102F5000002102F085F905462E461DB16078000774
:102F60000ED443E0D8F82C00D4F8A41020F460006C
:102F700000250843C8F82C003E466078000735D588
:102F8000D4F8A8004FEA3060052813D8DFE800F035
:102F900004180C1E1E1E00BFD8F8000040F40030BC
:102FA000C8F8000012E000BF04F12800002102F080
:102FB000EBF90AE001250127E07880071AD434E014
:102FC00004F10800002102F04BF905462F461DB11F
:102FD000E07880070ED428E0D8F82C00D4F8A810A8
:102FE00020F0E06000250843C8F82C003746E07860
:102FF00080071AD5E06C4FEA3010032838D8DFE894
:1030000000F009032D0900BFD8F8000040F400309B
:10301000C8F800002E464DB9D8F82000E16C20F029
:10302000300000250843C8F820003E466078C006FE
:1030300039D5E06D4FEA3030042847D8DFE800F09A
:1030400004221C0A0A0000BFD8F8000040F4003037
:10305000C8F800002F463DBB1CE000BF04F108008B
:10306000022102F0FDF80546002D2E46DED1D3E701
:1030700001250126DAE700BF04F12800002102F053
:1030800083F904E004F10800002102F0E9F80546A4
:103090002F464DB9D8F82400E16D20F4E04000251A
:1030A0000843C8F8240037466078800635D5206E7E
:1030B0004FEA3040052815D8DFE800F0041A0E0466
:1030C000040400BF2E46DDB91EE000BF0125012724
:1030D00060788006EBD420E004F12800012102F0A2
:1030E00053F90AE0012501266078400619D449E029
:1030F00004F10800012102F0B3F805462E461DB187
:10310000607840060DD43DE0D8F82400216E20F40C
:10311000E02000250843C8F824003E4660784006B9
:1031200030D5D4F8AC004FEA307005280ED8DFE86F
:1031300000F00313070303032F46ADB918E000BFE7
:1031400004F12800012102F01FF90AE001250127FE
:10315000607800061AD43CE004F10800012102F076
:103160007FF805462F461DB1607800060ED430E08A
:10317000D8F82C00D4F8AC1020F0E040002508432B
:10318000C8F82C0037466078000622D5E06E58B1AA
:10319000B0F1005F0CD0B0F1805F37D1D8F80000FB
:1031A00040F40030C8F800002E469DB908E000BF8A
:1031B00004F10800012102F053F805462E464DB9EE
:1031C000D8F82400E16E20F0405000250843C8F8EC
:1031D00024003E46E078C0071DD0A06C032855D8D7
:1031E000DFE800F008024A08D8F8000040F4003098
:1031F000C8F80000A9467DB9D8F82000A16C20F0DD
:10320000030000250843C8F8200004E0012501263A
:10321000E078C007E1D1B146A078400602D44F461D
:1032200018E000BFD8F8D40340F48070C8F8D40385
:10323000FFF70EF8064600BFD8F8D403C00507D440
:10324000FFF706F8801B6428F6D90325032701E061
:103250002F46FDB12078C00700F06F80A06F4FEAC5
:10326000F00005284ED8DFE800F0035347030303BE
:10327000002D2E4654D157E004F10800022101F040
:10328000EFFF0546002DA946C6D1B5E701254FF051
:103290000109C1E7D8F84410D4F8B000414011F456
:1032A000407F11D0D8F84410D8F8442042F480323E
:1032B000C8F84420D8F8442021F4407122F4803228
:1032C000C8F84420C8F84410B0F5807F40F0D082A0
:1032D000FEF7BEFF064641F2883A0325032700BFEA
:1032E000D8F84400800700F1C182FEF7B1FF801BCF
:1032F0005045F5D9AEE700BF04F12800012102F0E6
:1033000043F80AE0012501262078800719D446E019
:1033100004F10800012101F0A3FF05462E461DB16E
:10332000207880070DD43AE0D8F82800A16F20F06B
:10333000380000250843C8F828003E46207880075A
:103340002DD5606F05280FD8DFE800F004140804BD
:10335000040400BF2F46ADB918E000BF04F12800F7
:10336000012102F011F80AE0012501272078400729
:1033700019D447E004F10800012101F071FF05466E
:103380002F461DB1207840070DD43BE0D8F8280027
:10339000616F20F0070000250843C8F82800374671
:1033A000207840072ED5D4F8900005280ED8DFE805
:1033B00000F00313070303032E46ADB918E000BF66
:1033C00004F12800012101F0DFFF0AE001250126B8
:1033D000207880061AD44BE004F10800012101F0A6
:1033E0003FFF05462E461DB1207880060ED43FE0F3
:1033F000D8F82C00D4F8901020F0070000250843DE
:10340000C8F82C003E462078800631D5D4F88C00D0
:103410004FEA307005280FD8DFE800F004140804E4
:10342000040400BF2F46ADB918E000BF04F1280026
:10343000022101F0A9FF0AE00125012720784006BA
:103440001AD44BE004F10800002101F009FF054601
:103450002F461DB1207840060ED43FE0D8F8280052
:10346000D4F88C1020F0E04000250843C8F828006C
:1034700037462078400631D5D4F898004FEAB0207E
:1034800005280FD8DFE800F004140804040400BF86
:103490002E46ADB918E000BF04F12800022101F06A
:1034A00073FF0AE001250126207800061AD44EE0B9
:1034B00004F10800002101F0D3FE05462E461DB19F
:1034C000207800060ED442E0D8F82C00D4F89810EA
:1034D00020F4E05000250843C8F82C003E46207830
:1034E000000634D5D4F89C004FEA7030052815D872
:1034F000DFE800F0041A0E04040400BF2F46E5B113
:103500002068010727D4C1063ED4000355D477E0D4
:1035100004F12800022101F037FF0AE0012501270C
:1035200020680107EFD516E004F10800002101F042
:1035300097FE0546002D2F46E2D1D8F82C00D4F88E
:103540009C1020F4604000250843C8F82C00374642
:1035500020680107D7D5D4F88000B0F5805F09D185
:1035600004F12800022101F00FFF002818BF0127F5
:10357000D4F88000D8F8281021F440510843C8F846
:1035800028002068C106C0D5D4F89400B0F5807F2B
:1035900009D104F12800022101F0F6FE002818BF2D
:1035A0000127D4F89400D8F82C1021F44071084376
:1035B000C8F82C002068000322D5D4F8A000B0F58C
:1035C000003F11D0B0F5803F08D0002844D104F16D
:1035D0000800002101F044FE05E000BF04F12800CE
:1035E000022101F0D1FE05462E4655B9D8F82C002F
:1035F000D4F8A01020F4403000250843C8F82C006F
:103600003E46A07840072CD5D4F88400B0F5401F82
:103610000BD0B0F5001F0BD0B0F5801F2AD1D8F821
:10362000000040F40030C8F800002F46D5B907E08C
:1036300004F12800012101F0A7FE05462F468DB9AF
:10364000D8F82800D4F8841020F44010002508434E
:10365000C8F8280005E000BF01250126A078400732
:10366000D2D43746A078C00709D13E4621688800E9
:1036700015D532E001250127A078C007F5D0206DCF
:10368000B0F5803F10D018BBD8F8000040F40030EF
:10369000C8F800002E4685B1216888001DD46068F6
:1036A0008A0326D465E000BF04F10800022101F07E
:1036B000D7FD0546002D2E46EED1D8F82000216D0D
:1036C00020F4803000250843C8F82000CDE700BF73
:1036D0000125012621688800E1D504F12800022196
:1036E00001F052FE002818BF0126D4E900108A0319
:1036F0003FD5E26F6FF0010303EB3223022B0BD3B4
:103700004FEA322343B1012B40F0AA80D8F80030B1
:1037100043F40033C8F8003025B3CA022CD48A021F
:1037200034D44A003CD4CA0F49D1090251D4C1074C
:103730005AD1810763D441076CD4010776D4C106FE
:1037400000F18080800607D504F12800022101F0F5
:103750001BFE002818BF0125002D18BF0125284693
:10376000BDE8F087D8F8283023F440731A43C8F82E
:1037700028203546CA02D2D5D8F82420236F22F05B
:1037800000421A43C8F824208A02CAD5D8F8242057
:10379000A36E22F080721A43C8F824204A00C2D5D2
:1037A00058F81C2C22F4004248F81C2CD4F8B42001
:1037B00058F81C3C1A4348F81C2CCA0FB5D0D8F84E
:1037C0002020636D22F040521A43C8F820200902DD
:1037D000ADD5D8F82810D4F8882021F44001114341
:1037E000C8F82810C107A4D004F10800002101F096
:1037F00037FD002818BF0546606881079BD504F196
:103800000800012101F02CFD002818BF0546606862
:10381000410792D504F10800022101F021FD0028A2
:1038200018BF0546606801077FF589AF04F12800DD
:10383000002101F0A9FD002818BF05466068C106F7
:103840007FF580AF04F12800012101F09DFD0028E3
:1038500018BF0546606880063FF576AF7CE700BF7D
:103860000125CA027FF55BAF86E700BFD4F8B00040
:103870004FF6CF7358F81C2CC0F2FF0300F44071D0
:1038800022F47C5203EA10136FF31F30B1F5407F2E
:1038900008BF1A43002548F81C2CD8F844100843E8
:1038A000C8F84400FFF7BBBC2DE9F04381B0002805
:1038B00000F0208142F200090446C5F20029D9F83F
:1038C000000000F00F0088420DD2D9F8000020F06F
:1038D0000F000843C9F80000D9F8000000F00F00FD
:1038E000884240F00781206844F218464207C5F636
:1038F00002060AD52269336803F070039A4204D99C
:10390000336823F070031A43326002070AD56269F4
:10391000736803F070039A4204D9736823F070034C
:103920001A437260C2060AD5A269736803F4E063A1
:103930009A4204D9736823F4E0631A4372608206E2
:103940000AD5E269B36803F070039A4204D9B368F8
:1039500023F070031A43B26010F002020AD0E36849
:10396000376807F00F07BB4204D9376827F00F0705
:103970003B433360C3073FD0306820F47062D4E922
:1039800001031A433260012856F8182C0AD0032884
:1039900004D002280AD192030BD4ABE0920108D4E0
:1039A000A8E000BFD20504D4A4E000BF520740F154
:1039B000A180884656F8081C21F00701084346F804
:1039C000080CFEF745FC054641F2883756F8080C0E
:1039D000616800F03800B0EBC10F09D0FEF738FC89
:1039E000401BB842F2D9032001B0BDE8F08300BF0C
:1039F0002068414600F0020252B1E268336803F0E9
:103A00000F039A4204D2336823F00F031A43326043
:103A1000D9F8002002F00F028A420CD9D9F8002010
:103A200022F00F020A43C9F80020D9F8002002F062
:103A30000F028A425ED141070AD52169326802F03D
:103A40007002914204D2326822F070021143316058
:103A500001070AD56169726802F07002914204D2CE
:103A6000726822F0700211437160C1060AD5A16923
:103A7000726802F4E062914204D2726822F4E06259
:103A80001143716080060AD5E069B16801F07001E8
:103A9000884204D2B16821F070010843B06000F0A0
:103AA000B7F8316847F29112C0F60002C1F3032162
:103AB000515C336803F00F0301F01F01D25C20FA60
:103AC00001F102F01F0040F20C02C2F2004221FAA2
:103AD00000F0106040F2040040F20802C2F2004020
:103AE000C2F200420068116001B0BDE8F043FEF789
:103AF0001BBD00BF012001B0BDE8F0830000000045
:103B000080B500F085F844F2184147F29113C5F6EC
:103B10000201C0F600030A68C2F303229A5C096836
:103B200001F00F0102F01F02595C20FA02F201F0CD
:103B30001F0040F20C01C2F2004122FA00F00860BE
:103B400040F20801C2F200410A6080BD000000009E
:103B500080B500F05DF844F2184C47F29113C5F6B9
:103B6000020CC0F60003DCF80020C2F303229A5CCA
:103B7000DCF8001001F00F0102F01F02595CD04088
:103B800040F20C02C2F2004201F01F0120FA01F1E2
:103B9000116040F20802C2F200421060DCF804003A
:103BA000C0F30210185C00F01F0021FA00F080BD85
:103BB00080B500F02DF844F2184C47F29113C5F689
:103BC000020CC0F60003DCF80020C2F303229A5C6A
:103BD000DCF8001001F00F0102F01F02595CD04028
:103BE00040F20C02C2F2004201F01F0120FA01F182
:103BF000116040F20802C2F200421060DCF80400DA
:103C0000C0F30220185C00F01F0021FA00F080BD14
:103C100044F20041C5F602010869C0F3C20003285E
:103C200016D002280ED098BB0868800649F2000022
:103C3000C0F2D03058BF70470968C1F3C101C84015
:103C4000704700BF47F64000C0F27D10704700BFCC
:103C50008A6A886AC0F3051CC86ABCF1000F4B6B06
:103C60001CD000F00100404200EAD3006FF35F3047
:103C700000EE100A02F003000228B8EE400A0FD04E
:103C800090B90868800613D49FED251A1DE000BF87
:103C900040F60010C0F23D00704700BF00207047A2
:103CA0009FED1E1A11E000BF9FED1B1A0DE000BF33
:103CB000086849F20002C0F2D032C0F3C10022FA13
:103CC00000F001EE100AB8EE411A086B9FED153AAC
:103CD0006FF35F2002EE100A086BC0F34620B8EEC7
:103CE000422A013000EE032A00EE10CAB7EE003A75
:103CF000B8EE400A81EE000A32EE031A20EE010A05
:103D000001EE100AB8EE411A80EE010ABCEEC00ABC
:103D100010EE100A704700BF0024744A20BCBE4B4E
:103D20000024744C0000003970B3F0B581B0044633
:103D3000007844F20046C007C5F6020626D1207876
:103D400080076AD5306910F03801B06A42D018296E
:103D500008BF5FEA80703DD0E0683168002800F05D
:103D60002D8121F0190108433060FEF771FA0546F4
:103D7000306840074AD4FEF76BFA401B0228F7D997
:103D8000032001B0F0BD00BF01207047306900F092
:103D90003801B06A102905D018290BD100F00300B2
:103DA000022807D130688003C9D560680028C6D1D1
:103DB000AAE000BF61683068002900F03981B1F5E0
:103DC000A02F00F02D81B1F5803F40F0478140F4F5
:103DD000803049E130684007E06802D5002800F0F3
:103DE0009380316821F0190108433060FEF730FA02
:103DF000054600BF3068400708D4FEF729FA401B8B
:103E000002284FF00300F5D901B0F0BD70682169B8
:103E100020F0FE4040EA016070602078C0061AD5AC
:103E2000306900F03801B06A082907D0182940F03D
:103E3000858000F00300012840F080803068C005D4
:103E400002D5E06980285FD1F068216A20F07C50BB
:103E500040EA0160F060207800073FD420788006B7
:103E600056D42078400700F18180656A9DB330699F
:103E700000F03800182840F01981012DB16A306B2C
:103E800042D001F00302A36A9A423DD1C1F3051169
:103E9000E26A914238D10146226B6FF35F21013A09
:103EA000914231D1C0F34622616B01398A422BD154
:103EB000C0F30642A16B01398A4225D1C0F30660E6
:103EC000E16B013988421FD1706BA16CC0F3CC004B
:103ED000814240F0A581002001B0F0BD606900285A
:103EE000706F59D040F001007067FEF7B1F90546D8
:103EF000706F8007B2D4FEF7ABF9401B0228F7D9E8
:103F0000032001B0F0BD00BF012001B0F0BD00BF33
:103F1000A0690028306871D040F480503060FEF70E
:103F200097F90546306880049BD4FEF791F9401B51
:103F30000228F7D9032001B0F0BD00BFE0690028D6
:103F4000306800F0A18040F080003060FEF780F91A
:103F5000054600BF3068C0053FF576AFFEF778F93B
:103F6000401B02284FF00300F4D94DE7D6F80004B7
:103F700040F48070C6F80004FEF76AF9054600BFF9
:103F8000D6F80004C0052BD4FEF762F9401B642864
:103F9000F6D9032001B0F0BD20F001007067FEF7F4
:103FA00057F90546706F80077FF558AFFEF750F957
:103FB000401B02284FF00300F4D925E721F001004F
:103FC0003060FEF745F90546306840077FF525AFBC
:103FD000FEF73EF9401B02284FF00300F4D913E727
:103FE000A168306F002900F08B80052900F08080E7
:103FF000012940F09D8040F001009FE020F48050B6
:104000003060FEF725F90546306880047FF529AF5A
:10401000FEF71EF9401B02284FF00300F4D9F3E627
:1040200040F480203060306840F480301CE000BFF5
:1040300020F480303060306820F480203060FEF75B
:1040400007F90546306880037FF579AEFEF700F981
:10405000401B64284FF00300F4D9D5E620F48030EB
:104060003060306820F480203060FEF7F1F80546BB
:10407000306880033FF563AEFEF7EAF8401B642822
:10408000F6D9032001B0F0BD20F080003060FEF7CB
:10409000DFF805463068C0057FF5DDAEFEF7D8F8DD
:1040A000401B02284FF00300F4D9ADE6306820F041
:1040B00080703060FEF7CCF8022D05460CD100BFB1
:1040C000306880014CD5FEF7C3F8401B02284FF042
:1040D0000300F5D998E600BF306880017FF5FBAE9C
:1040E000FEF7B6F8401B02284FF00300F4D98BE628
:1040F00040F004003067306F40F001001EE000BF68
:1041000020F001003067306F20F004003067FEF7C8
:104110009FF8054641F28837306F80077FF5A5AEDE
:10412000FEF796F8401BB8424FF00300F4D96BE657
:1041300020F001003067306F20F004003067FEF798
:1041400087F8054641F28837306F80073FF58DAE1E
:10415000FEF77EF8401BB8424FF00300F4D953E657
:1041600004F12807B06A40F2F33188438ECF084348
:10417000591E40EA02104FF47E426FF35F21B06295
:1041800002EB47204FF4FE0280B2E36B0844A16BC0
:1041900002EB01414FF0FE4201F4FE0102EB03622B
:1041A000084402F0FE4108443063F06A4FF6F871AB
:1041B00020F00100F062706BA26C884340EAC200FC
:1041C0007063F06A216C20F00C000843F062F06A22
:1041D000616C20F002000843F062F06A40F4803025
:1041E000F062F06A40F40030F062F06A40F480203F
:1041F000F062F06A40F00100F062306840F08070D8
:104200003060FEF725F80446306880013FF563AE64
:10421000FEF71EF8001B02284FF00300F4D9F3E567
:10422000F06A20F00100F062FEF712F80546FEF792
:104230000FF8A842FBD0706B4FF6F871A26C884360
:1042400040EAC2007063F06A40F00100F0620020B2
:1042500001B0F0BD00000000411E0020B0EB116F66
:1042600002D00120704700BF4EF21002F023CEF2C0
:10427000000251604EF62351CEF200010B7007216F
:10428000906011607047000090F88410012901D1FE
:10429000022070472421C0F8881001680A680B6862
:1042A00022F0005223F001030B60002343660A60F2
:1042B0002021C0F8881080F884300020704700006A
:1042C0007047000000000000704700000000000080
:1042D00090F88420012A01D10220704770B5242271
:1042E000C0F888200268D0F864E0BEF1000FD2F870
:1042F00000C0136823F001031360936823F0606328
:1043000041EA0301916019D0916847F2BA1E93689F
:10431000C0F6000E5B0F47F2C215C1F34266C0F64D
:1043200000051EF80340E95C2301B3FBF1F11EF820
:104330000630AE5D1B01B3FBF6F301E00121012362
:10434000A0F86A102021A0F86830C2F800C0C0F8B8
:104350008810002180F88410002070BD000000004B
:1043600090F88420012A01D10220704770B52422E0
:10437000C0F888200268D0F864E0BEF1000FD2F8DF
:1043800000C0136823F001031360936823F06043B7
:1043900041EA0301916019D0916847F2BA1E93680F
:1043A000C0F6000E5B0F47F2C215C1F34266C0F6BD
:1043B00000051EF80340E95C2301B3FBF1F11EF890
:1043C0000630AE5D1B01B3FBF6F301E001210123D2
:1043D000A0F86A102021A0F86830C2F800C0C0F828
:1043E0008810002180F88410002070BD00000000BB
:1043F000704700000000000070470000000000004F
:10440000704700000000000070B5016840F62F0200
:10441000CB691A40202A0A688E680BD102F020046A
:1044200006F080552D1917D0416F69B3BDE8704073
:10443000084700BF40F60F052B420DD0012540F282
:104440002014C1F20005C0F2004406EA050C02EA9D
:10445000040515EB0C0525D1DD06C46E16D5012C1F
:1044600014D112F0100511D010220A628968490691
:1044700066D4B0F85C10B0F85E20B0F85E30002B67
:1044800018BF914240F05C8270BD00BFDD0215D5BF
:1044900016F4800512D04FF480120A62BDE8704015
:1044A000FFF7AABFDD0718BF12F4807540F01E8128
:1044B0009D0706F0010E00F125812EE1190606D5B3
:1044C00002F0800106F40006891940F0BF82590607
:1044D00040F1008112F0400100F0FC80016851E8D9
:1044E000001F026821F0400142E80013F3B10168A7
:1044F00051E8001F026821F0400142E80013002B40
:104500001FBF016851E8001F026821F040011CBF75
:1045100042E80013002B09D0016851E8001F02682F
:1045200021F0400142E80013002BD7D12021C0F830
:10453000881000218167BDE8704000F09DBC00BF7D
:10454000D0F880100A68526893B2002B9CD0B0F863
:104550005C60B34298D2A0F85E20C969B1F5807F53
:1045600000F0AC80016851E8001F026821F48071FE
:1045700042E80013F3B1016851E8001F026821F41A
:10458000807142E80013002B1FBF016851E8001F33
:10459000026821F480711CBF42E80013002B09D08F
:1045A000016851E8001F026821F4807142E800139D
:1045B000002BD7D1016851E8021F026821F00101E8
:1045C00042E80213F3B1016851E8021F026821F0CA
:1045D000010142E80213002B1FBF016851E8021FCE
:1045E000026821F001011CBF42E80213002B09D030
:1045F000016851E8021F026821F0010142E802133C
:10460000002BD7D1016851E8021F026821F0400158
:1046100042E80213F3B1016851E8021F026821F079
:10462000400142E80213002B1FBF016851E8021F3E
:10463000026821F040011CBF42E80213002B09D0A0
:10464000016851E8021F026821F0400142E80213AC
:10465000002BD7D12021C0F88C100021C166016841
:1046600051E8001F026821F0100142E80013F3B185
:10467000016851E8001F026821F0100142E80013B0
:10468000002B1FBF016851E8001F026821F01001D4
:104690001CBF42E80013002B09D0016851E8001F3D
:1046A000026821F0100142E80013002BD7D1D0F8A6
:1046B000801004460846FDF7DBF82046022101671A
:1046C000B0F85C10B0F85E20891A89B2BDE870407D
:1046D000FFF7F6BD190240F1C58112F0804100F0EC
:1046E000C181BDE87040FFF783BE00BF01250D62A8
:1046F000D0F8905045F00105C0F890509D0706F0A5
:10470000010E0AD5BEF1000F07D002240C62D0F8CA
:10471000904044F00404C0F890405C070AD5BEF114
:10472000000F07D004250D62D0F8905045F0020527
:10473000C0F890501D070CD502F0200555EA0C0575
:1047400007D008250D62D0F8905045F00805C0F854
:1047500090501D050BD512F0806508D04FF4006510
:104760000D62D0F8905045F02005C0F89050D0F878
:104770009050002D3FF488AE9B060BD502F020022E
:1047800006F08053D21805D0426F1AB10446904704
:1047900020462168D0F89020896801F0400102F09D
:1047A0002802891806D10446FFF72AFE0020C4F823
:1047B000900070BD016851E8001F026821F49071FB
:1047C00042E80013F3B1016851E8001F026821F4C8
:1047D000907142E80013002B1FBF016851E8001FD1
:1047E000026821F490711CBF42E80013002B09D02D
:1047F000016851E8001F026821F4907142E800133B
:10480000002BD7D14FF6FE71CEF6FF71026852E849
:10481000022F03680A4043E80226DEB1026852E82C
:10482000022F03680A4043E80226002E1FBF0268D9
:1048300052E8022F03680A401CBF43E80226002EFC
:1048400008D0026852E8022F03680A4043E80226B3
:10485000002EDBD1C16E012927D1016851E8001F6C
:10486000026821F0100142E80013F3B1016851E839
:10487000001F026821F0100142E80013002B1FBF47
:10488000016851E8001F026821F010011CBF42E8D6
:104890000013002B09D0016851E8001F026821F0C5
:1048A000100142E80013002BD7D12021C0F88C1052
:1048B0000021C166026841679168490640F1CE80D7
:1048C000016851E8021F026821F0400142E802132A
:1048D000F3B1016851E8021F026821F0400142E88B
:1048E0000213002B1FBF016851E8021F026821F06C
:1048F00040011CBF42E80213002B09D0016851E8B7
:10490000021F026821F0400142E80213002BD7D1B8
:10491000D0F88010002900F0A18045F689020446F5
:104920000846C0F600020A65FDF736FA00283FF493
:10493000ABADD4F88000016DBDE87040084700BF02
:10494000891A026852E8002F036822F4907243E843
:104950000026F6B1026852E8002F036822F4907234
:1049600043E80026002E1FBF026852E8002F0368AC
:1049700022F490721CBF43E80026002E09D0026882
:1049800052E8002F036822F4907243E80026002EBC
:10499000D7D14FF6FE72CEF6FF72036853E8023F9E
:1049A0000668134046E80235DDB1036853E8023F6C
:1049B0000668134046E80235002D1FBF036853E820
:1049C000023F066813401CBF46E80235002D08D0A0
:1049D000036853E8023F0668134046E80235002D9D
:1049E000DBD12022C0F88C200022C2664267026818
:1049F00052E8002F036822F0100243E80026F6B1C7
:104A0000026852E8002F036822F0100243E80026F3
:104A1000002E1FBF026852E8002F036822F0100228
:104A20001CBF43E80026002E09D0026852E8002F80
:104A3000036822F0100243E80026002ED7D189B285
:104A400002220267BDE87040FFF73ABC816F00297F
:104A50003FF41AADBDE87040084700BFBDE87040A4
:104A6000FFF7CEBCD9017FF50FADB2F1FF3FC8BF54
:104A700070BDBDE87040FFF727BC000000000000DB
:104A800010B5D8B10446D0F8880028B9002084F8C1
:104A90008400204600F028F82420C4F8880020680C
:104AA000A16A0268002922F00101016002D02046BB
:104AB00000F0C2FD204601F0EBFB08B1012010BD63
:104AC0002068416821F490414160816821F02A0109
:104AD0008160016841F0010101602046BDE810409D
:104AE00000F01ABE00000000B0B5B6B0044602A83F
:104AF000B8210025CDE93455CDE932553195FBF784
:104B00000AFE44F200412068C4F20001884229D024
:104B100041F20001C4F2010188425AD10020039001
:104B20000120029002A8FEF77FF908B1FCF72CF8EB
:104B300044F2E0402524C5F60200016941F010016D
:104B40000161016901F0100101910199016841F0D1
:104B500001010160006800F00100019001984FF42C
:104B6000C06020E00220029002A80395FEF75CF9E5
:104B700008B1FCF709F844F2E0402624C5F602002B
:104B8000816841F400318160816801F40031019154
:104B90000199016841F001010160006800F0010025
:104BA000019001980C203190022032900020CDE934
:104BB000330007203590002031A9C5F60200FDF72B
:104BC0005BFA002100222046FDF7FAFC2046FDF7A3
:104BD000E3FC36B0B0BD0000D0F88C30202B07D1FC
:104BE0000123002918BF002A06D11846704700BFCC
:104BF00002231846704700BF80B50023C36640F605
:104C00000043D0F800C0C5F600039C4503D0DCF893
:104C100004301B0204D401F08BFD002080BD00BFD6
:104C2000036853E800CFD0F800E04CF080634EE812
:104C3000003CBCF1000FEED0036853E800CFD0F881
:104C400000E04CF080634EE8003CBCF1000F1FBF59
:104C5000036853E800CFD0F800E04CF080631CBF3D
:104C60004EE8003CBCF1000FD5D0036853E800CFFC
:104C7000D0F800E04CF080634EE8003CBCF1000F3F
:104C8000CED1C8E70000000044F200410068C4F241
:104C90000001884218BF7047B0B540F2700040F282
:104CA000D025C2F20040C2F20045841C01224FF020
:104CB000FF332846214600F007F801222846214606
:104CC000BDE8B040FFF788BF2DE9F04381B004464E
:104CD000D0F88800202807D10120002918BF002A19
:104CE00006D101B0BDE8F083022001B0BDE8F08339
:104CF0001D460E460020C4F890002120C4F888000C
:104D00001746FDF7A5FAA4F854708146A4F856702A
:104D1000A168B1F5805F02D12069002866D03746CE
:104D20000020B4F856100029216867D06A1C28D0EA
:104D3000002D53D0804600BFC86900060AD4FDF795
:104D400087FAA0EB0900A84200F284802168086875
:104D5000F2E700BF17B117F8010B04E038F8020BB7
:104D600000276FF35F208862B4F856000138A4F87A
:104D70005600B4F856000028DED13FE0CA6912069A
:104D800009D4CA69120606D4CA6912065CBFCA6988
:104D90005FEA0262F2D51FB117F8012B05E000BFF0
:104DA00030F8022B00276FF35F228A62B4F8562096
:104DB000013AA4F85620B4F85620002AE1D11DE0AB
:104DC00030F8022B00276FF35F228A62B4F8562076
:104DD000013AA4F85620B4F856207AB1CA691206EE
:104DE00036D5002FECD017F8012BEEE70027304620
:104DF000B4F85610002921687FF498AFC8694006BE
:104E00001ED42DB3681C14D1C86940062AD4C869C1
:104E1000400627D4C869400624D4C86940064FF02C
:104E20000000F1D50DE000BF20680168C0694006B0
:104E300018D4FDF70DFAA0EB0900A842F4D909E057
:104E400000202021C4F8881001B0BDE8F08300BF25
:104E5000FDF7FEF903202021C4F8881001B0BDE859
:104E6000F08300BF00202021C4F8881001B0BDE805
:104E7000F083000000000000704700000000000008
:104E8000FEE700000000000010B58CB06846242149
:104E900000240B94CDE90944FBF73DFC40F2B4003B
:104EA00042F20001C2F20040C4F20201C0E9001463
:104EB00084600421C0E9044104830121C16180F8B8
:104EC0002040C0E90A440463C0E90F4480F844402C
:104ED000FCF74AF908B1FBF757FE40F2B40009A904
:104EE000C2F200400994FBF757FE08B1FBF74CFEF5
:104EF000042040F2FF71C0F660000090062001908F
:104F00000020029003910421CDE904108DF82100C6
:104F100040F2B400C2F200406946FBF795FE08B1CA
:104F2000FBF732FE0CB010BDB0B58AB040F22410D1
:104F300042F20011C2F2004000240994C4F20201BE
:104F4000CDE90744CDE90544C0E900148460042597
:104F5000C0E9044504830121C16180F82040C0E913
:104F60000A440463C0E90F4480F84440FCF7FCF8AD
:104F700008B1FBF709FE042001A9C0F6600001900A
:104F800006200694CDE9020440F2FF708DF825401A
:104F9000CDE9040540F22410C2F20040FBF754FEB4
:104FA00008B1FBF7F1FD0AB0B0BD00000000000041
:104FB000F0B587B044F2E0400026C5F60200069640
:104FC000CDE90466CDE90266016840F6004441F08F
:104FD000200101600168C5F6020401F02001019181
:104FE0000199016841F0800101600168002201F02F
:104FF000800101910199016841F00101016001689E
:105000004FF4806701F0010101910199016841F0BD
:1050100008010160016801F008010191019901682E
:1050200041F00201016000684FF4806100F002006D
:10503000019001982046FDF703F902AD4FF420607E
:10504000CDE90206204629460496FDF715F8012011
:105050002946CDE90306204602970596FDF70CF890
:1050600007B0F0BD0000000080B540F2941045F29A
:105070000041C2F2004044F67262C4F20001C6F27E
:105080004002C0E90012782181600121C160002145
:105090000162C0E90411C0E90611FDF72DF908B15C
:1050A000FBF772FD40F294100021C2F20040FDF7C0
:1050B000D7F808B1FBF768FD40F294100021C2F266
:1050C0000040FDF7F5F8002808BF80BDBDE880402E
:1050D000FBF75ABD0000000080B540F2E81045F62D
:1050E0000001C2F2004044F67262C4F20001C6F24E
:1050F0004002C0E90012782181600121C1600021D5
:105100000162C0E90411C0E90611FDF7F5F808B124
:10511000FBF73AFD40F2E8100021C2F20040FDF733
:105120009FF808B1FBF730FD40F2E8100021C2F211
:105130000040FDF7BDF8002808BF80BDBDE88040F5
:10514000FBF722BD0000000080B540F23C2041F298
:105150000001C2F20040C4F201010C2201604FF4D0
:10516000E13141600021C0E902110161C0E905217E
:10517000C0E90711C0E90911FFF782FC08B1FBF78C
:1051800003FD40F23C200021C2F20040FFF7E8F8A6
:1051900008B1FBF7F9FC40F23C200021C2F20040CC
:1051A000FFF796F808B1FBF7EFFC40F23C20C2F2A3
:1051B0000040FFF769F8002808BF80BDBDE88040C7
:1051C000FBF7E2BC0000000080B540F2D02044F2C2
:1051D0000041C2F20040C4F200010C2201604FF411
:1051E000E13141600021C0E902110161C0E90521FE
:1051F000C0E90711C0E90911FFF742FC08B1FBF74C
:10520000C3FC40F2D0200021C2F20040FFF7A8F812
:1052100008B1FBF7B9FC40F2D0200021C2F20040F7
:10522000FFF756F808B1FBF7AFFC40F2D020C2F20E
:105230000040FFF729F8002808BF80BDBDE8804086
:10524000FBF7A2BC00000000FEE700000000000029
:10525000FEE70000000000007047000000000000B2
:10526000F0B581B044F22C47C5F6020757F8042C7C
:1052700002F00302032A03D1012001B0F0BD00BFF8
:10528000054657F82C0C0C4620F0806047F82C0C93
:10529000FCF7DEFF064600BF57F82C0C000105D5D1
:1052A000FCF7D6FF801B0228F6D964E057F8040CFF
:1052B000EE6895E80E0020F47C30012C40EA0130C5
:1052C000A2F101016FF35F214FF47E4202EB432212
:1052D00047F8040C92B24FF0FE4302EB01004FF48A
:1052E000FE012A6901EB064101F4FE0103EB0262B3
:1052F000084402F0FE410844F8603868696920F00B
:10530000C00040EA010038603868A96920F0200038
:1053100040EA0100386038684FF6F87120F010005C
:1053200038603869EA6920EA01004FF4001140EA68
:10533000C2003861386808BF4FF4801140F0100097
:10534000002C386008BF4FF40021386808433860EB
:1053500057F82C0C40F0806047F82C0CFCF778FFD5
:10536000044600BF57F82C0C000107D4FCF770FF6F
:10537000001B0328F6D3032001B0F0BD002001B0CC
:10538000F0BD000000000000F0B581B044F22C47F1
:10539000C5F6020757F8042C02F00302032A03D1D2
:1053A000012001B0F0BD00BF054657F82C0C0C469B
:1053B00020F0805047F82C0CFCF74AFF064600BF4F
:1053C00057F82C0C800005D5FCF742FF801B022803
:1053D000F6D964E057F8040CEE6895E80E0020F06A
:1053E0007C70012C40EA0150A2F101016FF35F21B2
:1053F0004FF47E4202EB432247F8040C92B24FF086
:10540000FE4302EB01004FF4FE012A6901EB064165
:1054100001F4FE0103EB0262084402F0FE4108447D
:1054200078613868696920F4406040EA01003860BA
:105430003868A96920F4007040EA010038603868D3
:105440004FF6F87120F480703860B869EA6920EA94
:1054500001004FF0807140EAC200B861386808BFAF
:105460004FF4000140F48070002C386008BF4FF406
:10547000800138680843386057F82C0C40F08050A1
:1054800047F82C0CFCF7E4FE044600BF57F82C0C40
:10549000800007D4FCF7DCFE001B0328F6D30320B2
:1054A00001B0F0BD002001B0F0BD00000000000020
:1054B0007047000000000000FCF7F2BF0000000091
:1054C000B0B59CB044F6180409A84C21C5F60204F6
:1054D000FBF721F902200025CDE90755CDE9055557
:1054E000CDE90355CDE90155FDF7AAF800952068EF
:1054F00020F440402060206800F440400090009874
:105500002068800409D4206880045CBF20685FEABA
:10551000804002D420688004F2D5012009902C221A
:105520004FF48031CDE915200C20199009A80A917B
:1055300002211491CDE91211CDE917110024CDE912
:105540001A44FEF7F1FB28B1EFF3108072B600BFEA
:10555000FEE700BF3F20019003204FF48061CDE9BA
:105560000204082004904020CDE90500CDE9071091
:1055700001A80321FEF798F920B1EFF3108072B66D
:10558000FEE700BF1CB0B0BD4EF6885042F2000CE2
:10559000CEF20000C5F2002C026842F470020260F4
:1055A000DCF8000000F00F00062806D8DCF8000048
:1055B000072262F30300CCF8000044F200404EF6EC
:1055C0007F51C5F60200CEF6F621026842F00102D4
:1055D000026000220261036819400160DCF80010DB
:1055E000090706D5DCF80010072363F30301CCF8A4
:1055F000001040F200218261C261C0F20221026209
:1056000081620021C0F2FF11C16240F28021C0F22C
:105610000111016342638163C263016442640168F2
:1056200021F480210160026644F20000C5F20020EE
:1056300043F2D20101607047816A0A070CD4CA079D
:1056400015D18A071ED44A0727D4CA0630D48A0641
:1056500039D44A0642D454E00268D0F838C05368BE
:1056600023F4004343EA0C035360CA07E9D00268FD
:10567000D0F82CC0536823F4003343EA0C03536082
:105680008A07E0D50268D0F830C0536823F480332D
:1056900043EA0C0353604A07D7D50268D0F834C0F8
:1056A000536823F4802343EA0C035360CA06CED523
:1056B0000268D0F83CC0936823F4805343EA0C039B
:1056C00093608A06C5D50268D0F840C0936823F479
:1056D000005343EA0C0393604A0612D50268D0F8DF
:1056E00044C0BCF5801F536823F4801343EA0C03C5
:1056F000536006D1536823F4C00C836C43EA0C0357
:105700005360090658BF70470168C06C4A6822F4AC
:105710000022104348607047B0B582B004460020B4
:10572000C4F89000FCF794FD216805460A6812074A
:1057300037D54FF4001100226FF07E4000902046D4
:105740002B4601F031F958B3206850E8000F21686A
:1057500020F0800041E80002002A1FBF206850E8C6
:10576000000F216820F080001CBF41E80002002AE1
:1057700012D0206850E8000F216820F0800041E836
:1057800000024AB1206850E8000F216820F0800034
:1057900041E80002002AD7D10320202188226CE0B2
:1057A0002168086840075FD54FF4800100226FF040
:1057B0007E40009020462B4601F0F6F8002853D09A
:1057C000206850E8000F216820F4907041E8000242
:1057D000F2B1206850E8000F216820F4907041E891
:1057E0000002002A1FBF206850E8000F216820F443
:1057F00090701CBF41E80002002A09D0206850E8E0
:10580000000F216820F4907041E80002002AD7D1EF
:10581000206850E8020F216820F0010041E80202F0
:10582000002A1FBF206850E8020F216820F0010005
:105830001CBF41E80202002A12D0206850E8020F83
:10584000216820F0010041E802024AB1206850E8D6
:10585000020F216820F0010041E80202002AD7D19E
:10586000032020218C2208E02020C4F88800C4F8FE
:105870008C00002170220020E166A150002184F8F4
:10588000841002B0B0BD0000806B0021A0F85E1053
:10589000A0F85610FEF7B4BDB0F860200168D0F84B
:1058A0008C30222B40F0A880496A836D114023F888
:1058B000021B8365B0F85E100139A0F85E10B0F8E5
:1058C0005E10002918BF7047016851E8001F026888
:1058D00021F4907142E80013F3B1016851E8001F10
:1058E000026821F4907142E80013002B1FBF016889
:1058F00051E8001F026821F490711CBF42E80013B8
:10590000002B09D0016851E8001F026821F4907152
:1059100042E80013002BD7D1016851E8021F02684A
:1059200021F0010142E80213F3B1016851E8021FBE
:10593000026821F0010142E80213002B1FBF016839
:1059400051E8021F026821F001011CBF42E8021366
:10595000002B09D0016851E8021F026821F0010103
:1059600042E80213002BD7D12021C0F88C1000216F
:105970004167016740F600420168C5F600029142A6
:1059800002D0496809023DD4C16E012964D10021C9
:10599000C166016851E8001F026821F0100142E869
:1059A0000013F3B1016851E8001F026821F01001F3
:1059B00042E80013002B1FBF016851E8001F026876
:1059C00021F010011CBF42E80013002B09D0016830
:1059D00051E8001F026821F0100142E80013002B7B
:1059E000D7D10168CA69D20601D510220A62B0F87F
:1059F0005C10FEF765BC00BF886940F00800886154
:105A0000704700BF016851E8001F026821F0806103
:105A100042E80013002BB7D0016851E8001F02686C
:105A200021F0806142E80013002B1FBF016851E89C
:105A3000001F026821F080611CBF42E80013002BA8
:105A4000A2D0016851E8001F026821F0806142E89D
:105A50000013002BD6D197E7FFF716B9000000001E
:105A60002DE9F04F81B004460368B0F86050DA6960
:105A700018689968D4F88C70222F65D1B4F8683012
:105A8000002B18BF12F0200266D1B4F85E00002887
:105A90005ED0B4F8681088425AD2206850E8020FED
:105AA000216820F0805041E80202F2B1206850E8FD
:105AB000020F216820F0805041E80202002A1FBF37
:105AC000206850E8020F216820F080501CBF41E898
:105AD0000202002A09D0206850E8020F216820F055
